:020000040800F2
:100000002809002045010008770F0008310E00087C
:10001000750F0008D5010008071200080000000055
:100020000000000000000000000000009B0F00081E
:10003000D701000800000000990F00089D0F00087C
:100040005F0100085F0100085F0100085F01000810
:100050005F0100085F0100085F0100085F01000800
:10006000D90100085F0100085F0100085F01000876
:100070005F0100085F0100085F0100085F010008E0
:100080005F0100085F0100085F0100085F010008D0
:100090005F0100085F0100085F0100085F010008C0
:1000A0005F0100085F0100085F0100085F010008B0
:1000B0005F0100085F0100085F0100085F010008A0
:1000C0005F0100085F0100085F0100085F01000890
:1000D0005F0100085F0100085F0100085F01000880
:1000E0005F0100085F0100085F0100085F01000870
:1000F0005F0100085F0100085F0100085F01000860
:100100005F0100085F0100085F0100085F0100084F
:100110005F0100085F0100085F0100085F0100083F
:100120005F0100085F0100085F0100085F0100082F
:10013000DFF80CD000F03CF8004800470913000835
:10014000280900200648804706480047FEE7FEE7EA
:10015000FEE7FEE7FEE7FEE7FEE7FEE7FEE7FEE777
:10016000091000083101000840EA01039B0703D091
:1001700009E008C9121F08C0042AFAD203E011F8E6
:10018000013B00F8013B521EF9D27047D2B201E0A8
:1001900000F8012B491EFBD270470022F6E710B58C
:1001A00013460A4604461946FFF7F0FF204610BDE5
:1001B000064C074D06E0E06840F0010394E80700B4
:1001C00098471034AC42F6D3FFF7B6FF8813000807
:1001D000A8130008FEE77047042000F007B80428C1
:1001E00001D000BF7047052001F052B8044910B596
:1001F0000A68024202D00860FFF7F1FF10BD00005C
:10020000140401402DE9F84FDFF8B8A100220AF1EB
:10021000040B144601274FF00F090BF1040E00BF29
:100220000B6807FA04F52B40AB4274D1DFF898C194
:100230004E68A6EB0C0866452BD00DDC032E34D09F
:1002400005DC36B3012E19D0022E2FD11BE0112E62
:1002500016D0122E2AD119E0B8F5881F19D006DC65
:10026000B8F5803F15D0B8F5801F1FD111E0B8F563
:10027000001F0ED0B8F5041F18D10AE0CA6815E0B7
:10028000CA68121D12E0CA6808320FE0CA680C3250
:100290000CE08A682AB1012A4FF0080203D04561B8
:1002A00004E0042202E0056100E00022FF2B01D8F7
:1002B000064601E000F104064FEA840501D9A5F1E4
:1002C0002005D6F800C009FA05F82CEA080C02FA55
:1002D00005F54CEA050CC6F800C04D68ED006AD57E
:1002E0003A4DAE6946F00106AE61AD6924F00306F1
:1002F00005F001050095364D06EB050CDCF80850BD
:10030000A6074FEA167809FA08F6B543314EB0420F
:1003100002D100261AE04EE02F4EB04201D1012654
:1003200014E02E4EB04201D102260FE02C4EB04216
:1003300001D103260AE02B4EB04201D1042605E08C
:10034000294EB04201D1052600E0062606FA08F63D
:100350002E43CCF808604D68DAF80060ED0355468E
:1003600001D51E4300E09E432E604D68AD0305D5C8
:10037000DBF800601E43CBF8006004E0DBF80050BF
:100380009D43CBF800504D68DEF80060ED027546E5
:1003900001D51E4300E09E432E604D68AD0205D599
:1003A000084D0C352E681E432E6004E0054E0C36B9
:1003B00035689D433560641C102CFFF431AFBDE8F7
:1003C000F88F0000000401400000111000100240EE
:1003D0000000014000080140000C014000100140F5
:1003E0000014014000180140001C0140C2684A404E
:1003F000C26070470AB1016170470904FBE7000061
:1004000001488068704700000400002002488168AD
:10041000027811448160704704000020074810B53D
:10042000016841F010010160032000F073F8002022
:1004300000F006F800F024F8002010BD0020024073
:1004400070B50D4D04464FF47A712878B1FBF0F089
:100450000A490968B1FBF0F000F06CFC48B9102CB7
:1004600007D200222146501E00F034F800206C60B4
:1004700070BD012070BD00000400002010000020AD
:100480000C4808B5816941F001018161816901F081
:1004900001010091C16941F08051C161C06900F062
:1004A000805000900448416821F0E06141F0007103
:1004B000416008BD001002400000014000F01F0232
:1004C000012191404009800000F1E020C0F80011B6
:1004D00070470000F0B40E4B1B680C46C3F30223B8
:1004E000C3F10705042D00D90425191D072901D2E0
:1004F000002300E0DB1E012606FA05F1491E21401B
:1005000099409E40761E16403143F0BC00F034BD49
:100510000CED00E0064900F0070208684FF6FF0303
:10052000184040EA0220034A104308607047000068
:100530000CED00E00000FA052DE9F04186B0040062
:100540004FF0000504D094F82904002620B108E0FB
:10055000012006B0BDE8F08184F82864204600F050
:100560004BF8032084F82904206800F03CFE04F1D5
:100570001001142288466846FFF7F6FD94E80F0044
:1005800000F01EFE0021206800F03BFE5FF0010736
:1005900004EB451080F8297000F8285F8581C6704B
:1005A000066146616D1C86610F2DF1D35FF000007E
:1005B00004EB401181F8296281F82802888681F8CD
:1005C0002B62C1F83862C1F83C62401CC1F840623D
:1005D0000F28EDD3142241466846FFF7C5FD94E885
:1005E0000F0000F0F1FD84F8246084F8297420687D
:1005F00000F0E8FD0020ACE708B500680649884235
:1006000008D10648C16941F40001C161C06900F424
:100610000000009008BD0000005C00400010024097
:100620002DE9F84305460078354CC00754D0E06901
:100630000026C00008D4E06940F08050E061E06925
:10064000012600F0805000902E480168C90512D4A0
:100650000168804641F480710160FFF7D1FE0746D2
:1006600005E000BFFFF7CCFEC01B642823D8D8F8F4
:100670000000C005F6D5206A10F4407021D0A9888A
:1006800001F4407181421CD0206A1F49012220F4EC
:1006900040700A6000220A602062C00711D0FFF794
:1006A000AFFE074641F2883808E000BFFFF7A8FE1A
:1006B000C11B414502D90320BDE8F883206A8007A9
:1006C000F4D5206A696820F44070084320621EB1A6
:1006D000E06920F08050E0612878800705D56068E7
:1006E000A96820F44040084360602878C00605D51A
:1006F0006068696920F48000084360600020DBE7DF
:100700000010024000700040400442422DE9F047D2
:10071000DFF8548105460E46D8F8000000F00700C7
:10072000B0420CD2D8F8001021F007013143C8F8CC
:100730000010D8F8000000F00700B0426FD1286820
:100740004A4C810712D5400703D5606840F4E06049
:1007500060602878000703D5606840F460506060EE
:100760006068A96820F0F000084360602878C0073E
:1007700044D06868012816D02168022816D089075D
:1007800000294CDA616821F0030101436160FFF741
:1007900037FE6968074641F2883001290ED00229E8
:1007A000814618D026E021688903E9E78901E7E757
:1007B000FFF726FEC11B494501D918E08146606854
:1007C000C0F381000128F3D118E000BFFFF718FE45
:1007D000C11B49450BD86068C0F381000228F5D1E0
:1007E0000CE000BFFFF70CFEC11B494502D90320F6
:1007F000BDE8F087606810F00C0FF3D1D8F8001056
:10080000404601F00701B1420BD9016821F0070110
:1008100031430160006800F00700B04201D00120C0
:10082000E6E72878400705D56068E96820F4E060CD
:10083000084360602878000706D56068296920F4BD
:10084000605040EAC100606000F03CF86168084A0E
:10085000C1F30311515CC840064908600020FFF74E
:10086000EFFD0020C4E7000000200240001002401D
:10087000701300081000002001490120C86470476F
:10088000000042420448054900684968044AC1F32F
:100890000221515CC8407047100000200010024047
:1008A000801300080448054900684968044AC1F3F8
:1008B000C221515CC8407047100000200010024067
:1008C0008013000813A185B00FC98DE80F0015A093
:1008D000154A00680490516801F00C00042804D007
:1008E000082804D0114805B070471148FBE7C1F350
:1008F0008343C9031DF8030009D5516804AAC1F355
:100900004041515C0A4A5043B0FBF1F0EBE7094922
:100910004843E8E702030405060708090A0B0C0D23
:100920000E0F1010010200000010024000127A00A9
:100930000024F40000093D002DE9F84F044600783A
:10094000B94DC00748D06868C0F38100012807D0BE
:100950006868C0F38100022809D16868C00306D521
:100960002868800338D5606800286FD034E060685C
:10097000B0F5803F0BD010B1B0F5A02F11D0286892
:1009800020F480302860286820F4802002E0286865
:1009900040F480302860606888B1FFF731FD06467A
:1009A00009E0286840F480202860F0E7FFF728FD80
:1009B000801B642875D828688003F7D50CE0FFF702
:1009C0001FFD064605E000BFFFF71AFD801B6428E7
:1009D000F0D828688003F7D42078944E80074FF031
:1009E00001094FF000083BD5686810F00C0F07D0E4
:1009F0006868C0F38100022809D16868C00306D482
:100A00002868800714D5206901281FD110E02069CB
:100A1000B0B1C6F80090FFF7F3FC074605E000BF51
:100A2000FFF7EEFCC01B0228C4D828688007F7D562
:100A30002868616920F0F80040EAC10028600FE0F2
:100A4000C6F80080FFF7DCFC074606E0E9E000BFDF
:100A5000FFF7D6FCC01B022823D828688007F7D4EC
:100A6000207800072CD57248A169D9B1C0F8009050
:100A7000FFF7C6FC074604E0FFF7C2FCC01B0228D4
:100A80000FD8686A8007F7D56A484FF4FA510068B2
:100A9000B0FBF1F0009000BF0098411E0091FAD227
:100AA0000EE080E0C0F80080FFF7AAFC074604E0F3
:100AB000FFF7A6FCC01B022875D8686A8007F7D428
:100AC0002078400760D5E8690027C00008D4E869AD
:100AD00040F08050E861E869012700F08050009004
:100AE00055480168C90513D40168834641F48071F3
:100AF0000160FFF785FC824606E000BFFFF780FC3F
:100B0000A0EB0A0064284ED8DBF80000C005F5D53C
:100B1000E06801280AD008B1052813D0286A20F01F
:100B200001002862286A20F0040002E0286A40F0F0
:100B300001002862E06841F2883B98B1FFF760FC51
:100B400082460BE0286A40F004002862EEE700BF0E
:100B5000FFF756FCA0EB0A0159455AD8286A8007CE
:100B6000F6D50CE0FFF74CFC824605E0FFF748FCA9
:100B7000A0EB0A0159454CD8286A8007F6D41FB16A
:100B8000E86920F08050E861E06988B36968C1F3E2
:100B90008101022945D00228C6F8608004D0FFF701
:100BA0002FFC044638E034E0FFF72AFC074604E057
:100BB000FFF726FCC01B02282BD828688001F7D439
:100BC000206AB0F5803F05D16868A16820F4003044
:100BD00008436860D4E908010843696821F4741186
:100BE00008436860C6F86090FFF70AFC044606E018
:100BF00015E000BFFFF704FC001B022809D8286895
:100C00008001F7D50BE000BFFFF7FAFB001B0228BD
:100C100002D90320BDE8F88F28688001F4D40020B1
:100C2000F8E70120F6E70000001002400000424211
:100C300080044242100000200070004070B50400A3
:100C400005D00025A56294F8510010B104E0012000
:100C500070BD204600F034F8022084F8510020686E
:100C6000016821F040010160D4E901010843D4E9A1
:100C700003121143084361690843218B01F4007199
:100C80000843E1690843216A0843A16A08432168CF
:100C90000860A069042101EA1040616A08432168E4
:100CA00048602168E06A08612068C16921F4006138
:100CB000C1616565012084F85100002070BD00000D
:100CC00030B585B000240094019402940394006828
:100CD0001549884225D11548C16941F48041C16157
:100CE000C16901F480410491816941F00801816189
:100CF00080690F4D00F0080004904FF430400090E0
:100D0000022001900320039069462846FFF77AFAF3
:100D10004FF48040CDE90004694628460294FFF76D
:100D200071FA05B030BD00000038004000100240EC
:100D3000000C014010B5401EB0F1807F01D30120AE
:100D400010BD4FF0E02460610F21601700F014F92E
:100D50000020A06107202061002010BD70B50400B4
:100D600004D094F83900002510B106E0012070BDD0
:100D700084F83850204600F023F8242084F8390005
:100D80002068C16821F40051C160204600F060F97C
:100D90002068016921F4904101612068416921F0D6
:100DA0002A0141612068C16841F40051C160E563D6
:100DB000202084F8390084F83A00002070BD00003B
:100DC00030B585B000240094019402940394006827
:100DD0001449884224D11448C16941F40021C161F9
:100DE000C16901F400210491816941F01001816120
:100DF00080690E4D00F0100004904FF48060009068
:100E0000022001900320039069462846FFF7FAF973
:100E1000E814CDE90004694628460294FFF7F2F988
:100E200005B030BD004C00400010024000100140F1
:100E3000FEE700002DE9F04786B000243A48009410
:100E4000019402940394816941F0200181618169D8
:100E500001F020010491816941F0040181618169FF
:100E600001F004010491816941F008018161816907
:100E700001F008010491816941F0100181618069EC
:100E8000DFF8A88000F010004FF4007504900022F5
:100E900029464046FFF7AEFADFF894904FF44077CA
:100EA000002239464846FFF7A5FADFF888A000225D
:100EB00030215046FFF79EFA042000901E48CDE9ED
:100EC000010469464846FFF79DF9802000901B48C1
:100ED000CDE9010469464046FFF794F900950226E2
:100EE00001250396CDE9015469464046FFF78AF98A
:100EF00000970396CDE9015469464846FFF782F909
:100F00003020CDE90005CDE9024669465046FFF79D
:100F100079F9002211460820FFF7DCFA0820FFF7D4
:100F2000CDFA06B0BDE8F087001002400010014085
:100F300000080140000C01400000211000001110C9
:100F40000B480A494FF4802201604FF482714160DE
:100F500000218160C1600161C0E90512C1610162C7
:100F6000416281620A21C162FFF768BE0038004019
:100F700014000020FEE770470907090E002806DA72
:100F800000F00F0000F1E02080F8141D704700F120
:100F9000E02080F80014704770477047FFF736BABA
:100FA00010B596B028216846FFF7F7F814210AA873
:100FB000FFF7F3F818210FA8FFF7EFF8012001045D
:100FC00042048DE8070004904FF4E010CDE90810CA
:100FD000022407946846FFF7AFFC0F20CDE90A040E
:100FE00000244FF48060CDE90C4002210AA80E9441
:100FF000FFF78CFB102014940F900FA8FFF710FB45
:10100000FFF73AFC16B010BD0D48016841F0010130
:10101000016041680B4A1140416001680A4A114071
:101020000160016821F480210160416821F4FE0122
:1010300041604FF41F0181600449C003086070479C
:10104000001002400000FFF8FFFFF6FE08ED00E090
:101050002DE9F041044600680169E26821F440513D
:10106000114301612169A06808436169084321684F
:10107000CA6841F20C639A430243CA60206841691E
:10108000A26921F44071114341614C4920686425F3
:10109000322688423CD1FFF705FC00EBC00101EB92
:1010A000001061688900B0FBF1F7FFF7FBFB00EB74
:1010B000C00101EB00106168B0468900B0FBF1F09F
:1010C000B0FBF5F06FF01801484307EB800106EB29
:1010D0000110B0FBF5F000F0F006FFF7E3FB00EBCA
:1010E000C00101EB001061688900B0FBF1F0B0FBBA
:1010F000F5F006EB0016FFF7D5FB00EBC00101EBA6
:10110000001061688900B0FBF1F7FFF7CBFB3BE013
:10111000FFF7B8FB00EBC00101EB0010616889002C
:10112000B0FBF1F7FFF7AEFB00EBC00101EB0010E5
:101130006168B0468900B0FBF1F0B0FBF5F06FF0EC
:101140001801484307EB800106EB0110B0FBF5F0F6
:1011500000F0F006FFF796FB00EBC00101EB00107A
:1011600061688900B0FBF1F0B0FBF5F006EB00160A
:10117000FFF788FB00EBC00101EB001061688900FC
:10118000B0FBF1F7FFF77EFB00EBC00101EB0010B5
:1011900061688900B0FBF1F0B0FBF5F06FF0180169
:1011A000484307EB800108EB0110B0FBF5F0216824
:1011B00000F00F0030448860BDE8F0810038014045
:1011C000002070470020704700B50121A0F84010B2
:1011D0000021A0F84010A0F84410A0F8501000F032
:1011E00009F8002000BD30F8401F21F43D41018086
:1011F0000020704730F8401F41F43F41018000203B
:10120000704700207047FEE70FB4054B10B503A9E7
:10121000044A029800F017F810BC5DF814FB0000B7
:10122000751200080000002002E008C8121F08C163
:10123000002AFAD170477047002001E001C1121F57
:10124000002AFBD170472DE9F0411E46174604469F
:10125000002508E0252802D114F8010F30B13946E5
:10126000B047641C6D1C20780028F3D12846BDE8E7
:10127000F081000005490968C90105D54FF06041BA
:101280000A68002AFCD0087070470000FCED00E0FE
:1012900070B54FF480711A4C4D001A4E07281ED2BB
:1012A000DFE800F004060C0E12151900204601E0DC
:1012B00029463046BDE87040FFF798B82946F5E763
:1012C0002046FFF793F8F3E72946304600E0204632
:1012D000FFF78CF8F2E72046FFF788F8F4E70022E2
:1012E0002046FFF787F8002229463046FFF782F8AC
:1012F00029462046BDE870400022FFF77BB8000079
:101300000008014000100140FFF788F8FFF748FE91
:10131000FFF790FD12481149002401600821416047
:101320008461C461022104628160FFF705F9FFF75F
:1013300007FE0B480B49403801604FF4E131C0E92A
:1013400001140C21C460C0E904418461C461FFF749
:1013500005FD05A0FFF758FFFBE70000005C00401B
:10136000AC000020004C0040546578740A0D000069
:101370000000000000000000010203040607080945
:101380000000000001020304A81300080000002070
:101390001400000028120008BC13000814000020EC
:1013A00014090000381200080000000001000000CD
:0C13B000100000000000000000A24A0431
:0400000508000131BD
:00000001FF
