:020000040800F2
:10000000501300204501000837170008611500084B
:1000100035170008CD020008FD350008000000007B
:100020000000000000000000000000008F21000818
:100030004103000800000000D720000891210008BB
:100040005F0100085F0100085F0100085F01000810
:100050005F0100085F0100085F0100085F01000800
:10006000430300085F0100085F0100085F0100080A
:100070005F0100085F0100085F0100085F010008E0
:100080005F0100085F0100085F0100085F010008D0
:10009000953500085F0100085F0100085F01000856
:1000A0005F0100085F0100085F0100085F010008B0
:1000B0005F0100085F0100085F0100085F010008A0
:1000C0005F0100085F0100085F0100085F01000890
:1000D0005F0100085F0100085F0100085F01000880
:1000E0005F0100085F0100085F0100085F01000870
:1000F0005F0100085F0100085F0100085F01000860
:100100005F0100085F0100085F0100085F0100084F
:100110005F0100085F0100085F0100085F0100083F
:100120005F0100085F0100085F0100085F0100082F
:10013000DFF80CD000F07EF800480047813B000853
:10014000501300200648804706480047FEE7FEE7B8
:10015000FEE7FEE7FEE7FEE7FEE7FEE7FEE7FEE777
:10016000FD21000831010008202A04DB203A21FA91
:1001700002F00021704721FA02F3D040C2F12002C0
:10018000914008431946704740EA01039B0703D09A
:1001900009E008C9121F08C0042AFAD203E011F8C6
:1001A000013B00F8013B521EF9D27047D2B201E088
:1001B00000F8012B491EFBD270470022F6E710B56C
:1001C00013460A4604461946FFF7F0FF204610BDC5
:1001D0002DE9F05F0546002092469B46884606467C
:1001E000814640241BE02846414647462246FFF709
:1001F000BBFF53465A46C01A914110D311461846C8
:10020000224600F029F82D1A67EB01084F462246D6
:100210000120002100F020F817EB00094E41201EBC
:10022000A4F10104DFDC484631462A464346BDE8D6
:10023000F09F0000064C074D06E0E06840F0010327
:1002400094E8070098471034AC42F6D3FFF774FFE8
:10025000D03D0008F03D0008202A04DB203A00FAD7
:1002600002F1002070479140C2F1200320FA03F30D
:1002700019439040704770B58C1810F8015B15F069
:10028000070301D110F8013B2A1106D110F8012B08
:1002900003E010F8016B01F8016B5B1EF9D12B072D
:1002A00005D40023521E0DD401F8013BFAE710F8E3
:1002B000013BCB1A921C03E013F8015B01F8015BD0
:1002C000521EF9D5A142D8D3002070BDFEE7002010
:1002D000704700207047000010B50022054906480D
:1002E00002F038F903490448403902F02DF90020A2
:1002F00010BD0000100D00202C02002010B501469A
:10030000034802F021F9024802F002F9002010BD72
:100310002C020020094A10B5D2F81822D2F8142273
:100320000AB1012010BD0A460146044802F012F944
:10033000BDE81040014802F04DB900002C02002039
:100340007047042000F01CB87047000070B50446E8
:1003500000F020F90546601C02D0044800780444EF
:1003600000F018F9401BA042FAD370BD60000020D5
:10037000042801D000BF7047052003F0C5BB000072
:10038000044910B50A68024202D00860FFF7F0FF86
:1003900010BD0000140401402DE9F84FDFF8B8A1AA
:1003A00000220AF1040B144601274FF00F090BF14C
:1003B000040E00BF0B6807FA04F52B40AB4274D162
:1003C000DFF898C14E68A6EB0C0866452BD00DDC13
:1003D000032E34D005DC36B3012E19D0022E2FD1D6
:1003E0001BE0112E16D0122E2AD119E0B8F5881F65
:1003F00019D006DCB8F5803F15D0B8F5801F1FD1A5
:1004000011E0B8F5001F0ED0B8F5041F18D10AE0AE
:10041000CA6815E0CA68121D12E0CA6808320FE007
:10042000CA680C320CE08A682AB1012A4FF008022F
:1004300003D0456104E0042202E0056100E00022EF
:10044000FF2B01D8064601E000F104064FEA8405BF
:1004500001D9A5F12005D6F800C009FA05F82CEA63
:10046000080C02FA05F54CEA050CC6F800C04D6808
:10047000ED006AD53A4DAE6946F00106AE61AD6950
:1004800024F0030605F001050095364D06EB050C3A
:10049000DCF80850A6074FEA167809FA08F6B543C3
:1004A000314EB04202D100261AE04EE02F4EB0424B
:1004B00001D1012614E02E4EB04201D102260FE0F8
:1004C0002C4EB04201D103260AE02B4EB04201D19E
:1004D000042605E0294EB04201D1052600E006269B
:1004E00006FA08F62E43CCF808604D68DAF800608A
:1004F000ED03554601D51E4300E09E432E604D6836
:10050000AD0305D5DBF800601E43CBF8006004E0C6
:10051000DBF800509D43CBF800504D68DEF80060DA
:10052000ED02754601D51E4300E09E432E604D68E6
:10053000AD0205D5084D0C352E681E432E6004E033
:10054000054E0C3635689D433560641C102CFFF455
:1005500031AFBDE8F88F0000000401400000111029
:10056000001002400000014000080140000C014062
:10057000001001400014014000180140001C01401F
:10058000C2684A40C26070470AB1016170470904FD
:10059000FBE7000001488068704700006000002011
:1005A0000248816802781144816070476000002031
:1005B000074810B5016841F010010160032000F008
:1005C00073F8002000F006F800F024F8002010BDB9
:1005D0000020024070B50D4D04464FF47A71287822
:1005E000B1FBF0F00A490968B1FBF0F000F03AFF06
:1005F00048B9102C07D200222146501E00F034F8D2
:1006000000206C6070BD012070BD00006000002003
:100610006C0000200C4808B5816941F0010181613E
:10062000816901F001010091C16941F08051C1610E
:10063000C06900F0805000900448416821F0E061FA
:1006400041F00071416008BD00100240000001400F
:1006500000F01F02012191404009800000F1E020DC
:10066000C0F8001170470000F0B40E4B1B680C4638
:10067000C3F30223C3F10705042D00D90425191D76
:10068000072901D2002300E0DB1E012606FA05F14E
:10069000491E214099409E40761E16403143F0BCD1
:1006A00001F04AB80CED00E0064900F007020868C6
:1006B0004FF6FF03184040EA0220034A1043086047
:1006C000704700000CED00E00000FA0510B50C06C4
:1006D00005D501F07F0100EB4110283003E000EB6D
:1006E000411000F50A7099B232B101228272C180C4
:1006F000190C0181002010BD002282728180F9E76F
:10070000704700EB4112D0F85C04D26B02F024B9C0
:1007100000EB4112D0F85C04D2F83C2202F071B92F
:1007200010B504460A460B0601F07F0004EB4011A9
:1007300001D5283101E001F50A710870D00948702F
:1007400094F82804012809D0012084F8280420689E
:1007500002F03CFD002084F8280410BD022010BDEA
:1007600070B50A460446090602F07F0003D504EB83
:100770004011283103E004EB421101F50A71002514
:100780008D700870D009487094F82804012809D0A9
:10079000012084F82804206802F0C6FD84F828545B
:1007A000002070BD022070BD01F00F0100EB411070
:1007B000B0F8440280B2704770B504460D460E068C
:1007C00001F07F0004EB401101D5283101E001F573
:1007D0000A710870E80948700A61CB7094F828041F
:1007E000012809D0012084F82804206802F0BEFB0B
:1007F000002084F8280470BD022070BD70B50C463E
:1008000001F07F0500EB4511C1E98F230022C1F8FB
:10081000442281F8292281F8285201F50A716206E2
:10082000006802F0DBFD002070BD70B50D46044687
:10083000090605F07F0003D504EB4011283103E0E1
:1008400004EB451101F50A7101228A700870E8096C
:10085000487094F82804012807D084F828242068D8
:1008600002F097FD680602D006E0022070BD04F297
:100870002C41206802F056FD002084F8280470BD49
:1008800070B50C4601F07F0500EB4511C1E90F235F
:1008900000224A64012281F8292001F8285F6206BB
:1008A000006802F09BFD002070BD10B50446006892
:1008B00002F076FE000402D5204600F04DFF2068CD
:1008C00002F06EFE40050CD5206830F8441F21F47C
:1008D00080610180204600F0EDF80021204600F004
:1008E00004F9206802F05CFE400405D5206830F869
:1008F000441F21F480410180206802F051FE8004F1
:1009000005D5206830F8441F21F40051018020688B
:1009100002F046FEC00414D5206830F8401F21F0D4
:1009200004010180206830F8401F21F00801018097
:10093000204600F0D2F8206830F8441F21F480519E
:100940000180206802F02CFE00051AD5206830F8DE
:10095000401F41F008010180206830F8441F21F455
:1009600000610180206830F8401F41F004010180DF
:10097000206802F015FEC043C00402D5204600F0F6
:10098000E9F8206802F00CFE800508D5206830F8F0
:10099000441F21F400710180204600F0A2F8206875
:1009A00002F0FEFDC00505D5206830F8441F21F493
:1009B0008071018010BD00002DE9F04186B0040077
:1009C0004FF0000504D094F82904002620B108E077
:1009D000012006B0BDE8F08184F82864204600F0CC
:1009E0004BF8032084F82904206802F094FC04F1F9
:1009F0001001142288466846FFF7C6FB94E80F00F2
:100A000002F0E2FB0021206802F0DDFD5FF001074B
:100A100004EB451080F8297000F8285F8581C670C6
:100A2000066146616D1C86610F2DF1D35FF00000F9
:100A300004EB401181F8296281F82802888681F848
:100A40002B62C1F83862C1F83C62401CC1F84062B8
:100A50000F28EDD3142241466846FFF795FB94E832
:100A60000F0002F049FC84F8246084F8297420689F
:100A700002F040FC0020ACE708B500680B49884252
:100A800012D10B48C16941F40001C161C069002263
:100A900000F40000009011461420FFF7E5FDBDE8CA
:100AA00008401420FFF7D4BD08BD0000005C0040E2
:100AB0000010024070B5044680680125022801D06C
:100AC000FFF742FC2946D4F85C0402F067F8D4F83A
:100AD0005C04BDE8704002F030B8D0F85C0402F06D
:100AE0004BB8D0F85C0402F04DB810B5044690F84D
:100AF000280401280BD0012084F8280484F824104D
:100B0000206802F062FD002084F8280410BD022055
:100B100010BDD0F85C2400F22C41104602F04AB817
:100B200010B5044690F82804012810D0012084F85C
:100B3000280401462046FFF7E3FD206802F0D8FBB9
:100B4000206802F020FD002084F8280410BD022057
:100B500010BD000010B50446D0F85C0402F069F83E
:100B6000A069002804D00348016841F00601016033
:100B700010BD000010ED00E02DE9F84305460078B7
:100B8000354CC00754D0E0690026C00008D4E069A5
:100B900040F08050E061E069012600F08050009054
:100BA0002E480168C90512D40168804641F480715D
:100BB0000160FFF7EFFC074605E000BFFFF7EAFC26
:100BC000C01B642823D8D8F80000C005F6D5206AD9
:100BD00010F4407021D0A98801F4407181421CD0EA
:100BE000206A1F49012220F440700A6000220A6036
:100BF0002062C00711D0FFF7CDFC074641F28838CC
:100C000008E000BFFFF7C6FCC11B414502D9032025
:100C1000BDE8F883206A8007F4D5206A696820F46B
:100C20004070084320621EB1E06920F08050E0610E
:100C30002878800705D56068A96820F440400843FB
:100C400060602878C00605D56068696920F4800076
:100C5000084360600020DBE70010024000700040A5
:100C6000400442422DE9F047DFF8548105460E4624
:100C7000D8F8000000F00700B0420CD2D8F80010FD
:100C800021F007013143C8F80010D8F8000000F047
:100C90000700B0426FD128684A4C810712D540073F
:100CA00003D5606840F4E06060602878000703D5F1
:100CB000606840F4605060606068A96820F0F000EF
:100CC000084360602878C00744D06868012816D0BF
:100CD0002168022816D0890700294CDA616821F0C2
:100CE000030101436160FFF755FC6968074641F263
:100CF000883001290ED00229814618D026E02168CB
:100D00008903E9E78901E7E7FFF744FCC11B49458F
:100D100001D918E081466068C0F381000128F3D151
:100D200018E000BFFFF736FCC11B49450BD86068CF
:100D3000C0F381000228F5D10CE000BFFFF72AFCC8
:100D4000C11B494502D90320BDE8F087606810F057
:100D50000C0FF3D1D8F80010404601F00701B14262
:100D60000BD9016821F0070131430160006800F0F0
:100D70000700B04201D00120E6E72878400705D5FA
:100D80006068E96820F4E060084360602878000744
:100D900006D56068296920F4605040EAC1006060AF
:100DA00000F03CF86168084AC1F30311515CC84087
:100DB000064908600020FFF70DFC0020C4E7000092
:100DC0000020024000100240B63D00086C000020E8
:100DD00001490120C86470470000424204480549A7
:100DE00000684968044AC1F30221515CC840704759
:100DF0006C00002000100240C63D00080448054970
:100E000000684968044AC1F3C221515CC840704778
:100E10006C00002000100240C63D000813A185B000
:100E20000FC98DE80F0015A0154A0068049051689D
:100E300001F00C00042804D0082804D0114805B0A3
:100E400070471148FBE7C1F38343C9031DF8030052
:100E500009D5516804AAC1F34041515C0A4A504384
:100E6000B0FBF1F0EBE709494843E8E7020304056A
:100E7000060708090A0B0C0D0E0F101001020000E6
:100E80000010024000127A000024F40000093D0026
:100E90002DE9F84F04460078B94DC00748D068687E
:100EA000C0F38100012807D06868C0F381000228E0
:100EB00009D16868C00306D52868800338D5606802
:100EC00000286FD034E06068B0F5803F0BD010B1DF
:100ED000B0F5A02F11D0286820F480302860286851
:100EE00020F4802002E0286840F4803028606068A8
:100EF00088B1FFF74FFB064609E0286840F48020E0
:100F00002860F0E7FFF746FB801B642875D8286847
:100F10008003F7D50CE0FFF73DFB064605E000BF78
:100F2000FFF738FB801B6428F0D828688003F7D4CB
:100F30002078944E80074FF001094FF000083BD510
:100F4000686810F00C0F07D06868C0F381000228B1
:100F500009D16868C00306D42868800714D52069C1
:100F600001281FD110E02069B0B1C6F80090FFF74A
:100F700011FB074605E000BFFFF70CFBC01B022872
:100F8000C4D828688007F7D52868616920F0F80080
:100F900040EAC10028600FE0C6F80080FFF7FAFAC7
:100FA000074606E0E9E000BFFFF7F4FAC01B02289D
:100FB00023D828688007F7D4207800072CD57248FA
:100FC000A169D9B1C0F80090FFF7E4FA074604E040
:100FD000FFF7E0FAC01B02280FD8686A8007F7D530
:100FE0006A484FF4FA510068B0FBF1F0009000BF7E
:100FF0000098411E0091FAD20EE080E0C0F8008017
:10100000FFF7C8FA074604E0FFF7C4FAC01B02283E
:1010100075D8686A8007F7D42078400760D5E869FA
:101020000027C00008D4E86940F08050E861E86912
:10103000012700F08050009055480168C90513D47D
:101040000168834641F480710160FFF7A3FA82468C
:1010500006E000BFFFF79EFAA0EB0A0064284ED816
:10106000DBF80000C005F5D5E06801280AD008B11A
:10107000052813D0286A20F001002862286A20F091
:10108000040002E0286A40F001002862E06841F2B2
:10109000883B98B1FFF77EFA82460BE0286A40F061
:1010A00004002862EEE700BFFFF774FAA0EB0A0124
:1010B00059455AD8286A8007F6D50CE0FFF76AFA36
:1010C000824605E0FFF766FAA0EB0A0159454CD8C5
:1010D000286A8007F6D41FB1E86920F08050E861E3
:1010E000E06988B36968C1F38101022945D002280B
:1010F000C6F8608004D0FFF74DFA044638E034E0CB
:10110000FFF748FA074604E0FFF744FAC01B02283D
:101110002BD828688001F7D4206AB0F5803F05D12C
:101120006868A16820F4003008436860D4E90801C9
:101130000843696821F4741108436860C6F8609038
:10114000FFF728FA044606E015E000BFFFF722FA91
:10115000001B022809D828688001F7D50BE000BFE2
:10116000FFF718FA001B022802D90320BDE8F88F08
:1011700028688001F4D40020F8E70120F6E7000099
:101180000010024000004242800442426C000020F5
:101190000070004070B5040005D00025A56294F8E9
:1011A000510010B104E0012070BD204600F034F879
:1011B000022084F851002068016821F0400101609C
:1011C000D4E901010843D4E90312114308436169DA
:1011D0000843218B01F400710843E1690843216A47
:1011E0000843A16A084321680860A069042101EA54
:1011F0001040616A0843216848602168E06A08611C
:101200002068C16921F40061C1616565012084F82D
:101210005100002070BD000030B585B0002400945E
:1012200001940294039400681549884225D1154819
:10123000C16941F48041C161C16901F480410491F7
:10124000816941F00801816180690F4D00F008005B
:1012500004904FF43040009002200190032003904E
:1012600069462846FFF798F84FF48040CDE900041E
:10127000694628460294FFF78FF805B030BD00009C
:101280000038004000100240000C01402DE9F84FEA
:10129000044690F8500000260A9F9A4693460D4651
:1012A0004FF0010801280ED0012084F85000FFF70C
:1012B00071F9814694F85100616801280CD0B1F5AC
:1012C000827F07D102E00220BDE8F88FA16809B94A
:1012D000042801D00226BDE055B1BBF1000F07D0B4
:1012E000BAF1000F04D094F85100012802D004E0B4
:1012F0000126AFE0052084F8510000206065C4F8A5
:1013000038B0A4F83EA0A4F83CA02563A4F836A009
:10131000A4F834A02064606420680168490603D4FE
:10132000016841F040010160E068B0F5006F60685D
:1013300004D0E8B3E08E01283BD06AE010B1E08E23
:1013400001282ED1216835F8020BC860E08E401EBE
:10135000E08626E0B8F1000F0DD0E08E58B120688D
:101360008168890707D535F8021BC160E08E401EF1
:10137000E0864FF00008E08F58B120688168C90707
:1013800007D0C0682BF8020BE08F401EE0874FF0BB
:101390000108781C05D0FFF7FDF8A0EB0900B84262
:1013A00046D2E08E0028D5D1E08F0028D2D136E099
:1013B000FFE7216815F8010B0873E08E401EE086F8
:1013C00027E000BFB8F1000F0DD0E08E58B12068C3
:1013D0008168890707D515F8011B0173E08E401E4F
:1013E000E0864FF00008E08F58B120688168C90797
:1013F00007D0C0680BF8010BE08F401EE0874FF06C
:101400000108781C05D0FFF7C5F8A0EB0900B84229
:101410000ED2E08E0028D5D1E08F0028D2D13B46F5
:10142000012202212046CDF8009000F065FE08B1AF
:1014300003260FE04A463946204600F04DFE18B11B
:1014400001262020606505E0A06818B92068C16801
:1014500080680090012084F85100002084F850003A
:10146000304631E710B5401EB0F1807F01D3012036
:1014700010BD4FF0E02460610F21601700F05CF9AF
:101480000020A06107202061002010BD70B504007D
:1014900004D094F83900002510B106E0012070BD99
:1014A00084F83850204600F023F8242084F83900CE
:1014B0002068C16821F40051C160204600F0C2FEDE
:1014C0002068016921F4904101612068416921F09F
:1014D0002A0141612068C16841F40051C160E5639F
:1014E000202084F8390084F83A00002070BD000004
:1014F00030B585B0002400940194029403940068F0
:101500001449884224D11448C16941F40021C161C1
:10151000C16901F400210491816941F010018161E8
:1015200080690E4D00F0100004904FF48060009030
:10153000022001900320039069462846FEF72CFF05
:10154000E814CDE90004694628460294FEF724FF1A
:1015500005B030BD004C00400010024000100140BA
:10156000FEE70000F0B500230A24302537261F4689
:1015700011E000BFB4EB107F02D905EB107C01E055
:1015800006EB107C01F813C001EB430C00015B1C5F
:101590008CF80170DBB29342ECD3F0BD2DE9F0473B
:1015A00086B000243A48009401940294039481691F
:1015B00041F020018161816901F02001049181697C
:1015C00041F004018161816901F0040104918169A4
:1015D00041F008018161816901F00801049181698C
:1015E00041F0100181618069DFF8A88000F01000EF
:1015F0004FF400750490002229464046FEF7C4FFD0
:10160000DFF894904FF44077002239464846FEF7C1
:10161000BBFFDFF888A0002230215046FEF7B4FF60
:10162000042000901E48CDE9010469464846FEF7B3
:10163000B3FE802000901B48CDE901046946404676
:10164000FEF7AAFE0095022601250396CDE9015476
:1016500069464046FEF7A0FE00970396CDE9015487
:1016600069464846FEF798FE3020CDE90005CDE9F1
:10167000024669465046FEF78FFE002211460820BA
:10168000FEF7F2FF0820FEF7E3FF06B0BDE8F087A3
:10169000001002400010014000080140000C014011
:1016A00000002110000011100C480B494FF400728B
:1016B00001604FF48271416000218160C16001616D
:1016C000C0E905120822C2618022C0E908218162B6
:1016D0000A21C162FFF75EBD00380040940100207E
:1016E00010B500220F49104801F0F4F808B1FEF7D8
:1016F0002BFE0E490C4801F0C3FA08B1FEF724FE98
:101700000B49094800F018FF08B1FEF71DFE064816
:1017100001F020FB002803D0BDE81040FEF714BE06
:1017200010BD0000000000202C020020500100200D
:1017300050000020FEE770470907090E002806DA6E
:1017400000F00F0000F1E02080F8141D704700F158
:10175000E02080F8001470472DE9FC5F4FF000088E
:101760000446ADF80480ADF8008048F60F7B4FF0DA
:1017700002094FF4806692E1BDF8041011F00F07E2
:101780002BD030F82710ADF80010BDF80010090478
:1017900078D530F8272040F68F710A4020F82720AE
:1017A00004EB471595F8320205F50A750028206804
:1017B00069D0297830F8212052047DD5B0F8503016
:1017C00009EBC101194406EB4101415AC1F309017A
:1017D0005FEA010A71D0EA88D0E0BDF80410C906BA
:1017E0002AD4018801EA0B010180206804F1280550
:1017F000B0F850202B7809EBC301114406EB4101EE
:10180000405AC0F309006064E16B0844E0630021C2
:101810002046FEF776FF94F824000028ABD0A86994
:101820000028A8D194F82400216840F08000A1F895
:101830004C0084F8248032E1018804F50A75ADF883
:101840000010BDF8001009051ED5B0F850302978F9
:10185000062202EBC101194406EB4101405A04F291
:101860002C41C0F30903EB61AA88206801F09CFEBB
:101870002068018840F68F72114001802046FFF7F2
:1018800048F90CE1A0E055E0BDF800100904D2D5FC
:10189000028840F68F710A4002802068B0F850300C
:1018A0002978062202EBC101194406EB4101405A96
:1018B00083059B0DEB6101E051E063E008D0AA884D
:1018C0006969206801F070FEE96968690844686127
:1018D00000212046FEF71CFF2068B0F85010891D3B
:1018E00006EB4101014428693E280CD9C0F34F1290
:1018F000C00601D1521E92B24FF6FF7000EA82205C
:1019000040F4004009E0C0F34F02C00701D0521C70
:1019100092B24FF6FF7000EA8220086021680888C2
:101920004BF68F72104080F4405048F28002104312
:101930000880B4E0B0F850202B78062101EBC301F9
:10194000114406EB4101415AC1F309015FEA010A62
:1019500024D0AA885346696901F026FE1EE0B0F83B
:101960005020062303EBC101114406EB4101415A0B
:10197000C1F309015FEA010A04D02A895346696963
:1019800001F012FE2978206830F8213048F68F7275
:10199000134048F2C002134320F82130E96901EBFB
:1019A0000A00E861696901EB0A026A61AB6913B177
:1019B0002869504504D929782046FEF7A9FE03E09E
:1019C00029782046FEF71AFFBDF80000000666D50C
:1019D000206804EB471530F8271001EA0B0120F8C6
:1019E000271095F8320028350028206812D0297871
:1019F00030F82120B0F8503052061ED509EBC10155
:101A0000194406EB4101405A83059B0DEB6124D03C
:101A1000EA881EE0B0F850302A7809EBC201194478
:101A200006EB4101405A83059B0DEB6121D0AA884A
:101A30006969206801F0CFFD1BE0062202EBC101BD
:101A4000194406EB4101405A83059B0DEB6104D01C
:101A50002A896969206801F0BEFD2978206830F87C
:101A6000212048F68F731A404CF280031A4320F865
:101A700021202068B0F850202B7809EBC3011144D5
:101A800006EB4101405AC0F30900E86169690A1890
:101A90006A612978AB69204663B1FEF7F1FE2068E0
:101AA000B0F84410ADF8041009043FF565AE00200D
:101AB000BDE8FC9FFEF725FEF1E700002DE9F047A9
:101AC000C0B00F4604469146D420DDE948218DF888
:101AD00000001E46DDF828A18DF8017000206D463B
:101AE00006E0135C05EB000C401C8CF80230C0B221
:101AF0008842F6D3891C8AB22946204600F0AEFA05
:101B00004FF0FF3820B12069804720A061690FE0C5
:101B1000E1685046884708B36268062168469047E6
:101B20001F4900200A5C2B5C9A4203D061691DA00A
:101B3000884713E0401CC0B20628F3D3E168504642
:101B4000884758B1B01C82B26946204600F016F9A9
:101B500001469DF80000D52809D103E0404640B079
:101B6000BDE8F0879DF801007F1CB84202D018A0A4
:101B70006169DDE7002005E02A18937809F8003054
:101B8000401CC0B2B042F7D3881EE8E754727969AE
:101B90006E6720746F2077616B65757000000000C0
:101BA000B03D0008446964206E6F742072656365FF
:101BB0006976652065787065637465642041434B80
:101BC0002066726F6D20504E3533322100000000C8
:101BD000526563656976656420756E6578706563C6
:101BE00074656420636F6D6D616E642072657370DF
:101BF0006F6E7365210000003EB5044600204FF46F
:101C0000FA720090CDE901020A460423022120461F
:101C1000FFF754FF401C01D000203EBD616902A0C7
:101C200088474FF0FF303EBD4661696C65642074A3
:101C30006F206465746563742074686520504E3548
:101C4000333200000649016006494160064981605F
:101C50000649C160064901610649416100F0CEB9FB
:101C6000911F00083D1D000825200008BD1F000829
:101C7000FD1F0008791C000810B501F0C1FCBDE88B
:101C8000104001A001F0BCBC0D0A0000F0B589B005
:101C900016A6DDE90E453668089601268DF80C601B
:101CA0008DF80D408DF80E30002303ACEE5CE71884
:101CB0005B1CDBB2FE70062BF8D3002304E0CD5C86
:101CC000E6185B1C7572DBB29342F8D34FF47A715D
:101CD00009320094CDE90121012308AA4021FFF730
:101CE000EDFE9DF8200009B0F0BD0000FF000000EF
:101CF00010B50C4610A18AB0096808918DF8222011
:101D00004FF47A73032208A98DE80E00112303AA69
:101D10004021FFF7D3FE9DF80C00002809D103A94C
:101D20000A1852782254401CC0B21028F8D39DF8EB
:101D30000C000AB010BD00000130000070B506466E
:101D40000C46481C01F0F2FF0546032028700520D0
:101D5000FEF7FCFA601CC1B2284602F01DF8002014
:101D600004E0291849783154401CC0B2A042F8D38D
:101D7000284601F0A1FE002070BD00002DE9F041D1
:101D800005460026D01D14468846C2B081B26A6856
:101D9000684690470020471E6946083406E0401C0C
:101DA000C0B2A04202D31EA0696927E00A5C002AE3
:101DB000F5D0D2B2FF2AF6D1401CC3B2A34202D35F
:101DC00024A069691AE0C818CA5C4078104410F071
:101DD000FF0F02D026A0696910E00020541C08E023
:101DE00003EB000C8C44401C9CF802C0C0B266445B
:101DF000F6B2A042F4D336B1696929A088473846C3
:101E000042B0BDE8F081002006E01C180C44A57823
:101E100008F80050401CC0B29042F6D31046EFE7DD
:101E2000526573706F6E7365206672616D652070A8
:101E30007265616D626C6520646F6573206E6F748E
:101E400020636F6E7461696E2030783030464621B1
:101E500000000000526573706F6E736520636F6ED3
:101E60007461696E73206E6F20646174612100007B
:101E7000526573706F6E7365206C656E6774682051
:101E8000636865636B73756D20646964206E6F743D
:101E9000206D61746368206C656E67746821000052
:101EA000526573706F6E736520636865636B7375DD
:101EB0006D20646964206E6F74206D6174636820A6
:101EC000657870656374656420636865636B7375BA
:101ED0006D00000070B504461AA08AB000680D4677
:101EE000089008A98DF8212000910220CDE9010376
:101EF000132303AA4A212046FFF7E0FD4FF0FF36E7
:101F0000002802DA30460AB070BD9DF80C000128A6
:101F100002D00DA0616905E09DF81100072803D9E2
:101F2000616911A08847EDE7002003A904E00A18C1
:101F300092792A54401CC0B29DF811208242F6D8F2
:101F4000D0B2E0E7010000004D6F72652074686157
:101F50006E206F6E652063617264206465746563D2
:101F60007465642100000000466F756E6420636133
:101F70007264207769746820756E65787065637423
:101F800065646C79206C6F6E6720554944210000B0
:101F9000002070471FB508A14FF47A7309680391B8
:101FA000032203A98DE80E0000231A461421FFF72F
:101FB00085FD04B0002010BD0114010038B50546B0
:101FC0000DA000680090FEF7E5FA04460DE00A2037
:101FD000FEF7BCF90221684601F0DEFE9DF8010023
:101FE000012808D00520FEF7B1F9FEF7D3FA001B4F
:101FF000A842ECD3002038BD0200000038B5002014
:102000004FF47A7400902046FEF7A0F90220FEF704
:102010009DF90121684601F0BFFE2046FEF796F9C2
:10202000002038BD70B506460C46481C01F07EFE07
:10203000054601202870002004E0315C2A18401C6D
:102040005170C0B2A042F8D3641CE1B2284601F03E
:10205000A3FE284601F030FD002070BDF0B5074614
:10206000501EC3B04FF0FF35FF2831D200248DF849
:1020700000408DF80140FF208DF80200A446204664
:102080006E46335C401C2344C0B2DCB20328F8D354
:10209000D043401C8DF803208DF80400002309E094
:1020A00006EB030EC85C8EF80500C85C5B1C204480
:1020B000C4B2DBB29342F3D3E143B018D21D4171F5
:1020C00080F806C091B2BA6830469047002800D028
:1020D000284643B0F0BD704738B50B460092044621
:1020E0000022802100F008F8002804D0606D40F044
:1020F00020006065032038BD2DE9F0411D461746DC
:102100000E460446DDF8188035E0681C33D02DB14A
:10211000FEF740FAA0EB0800A8422CD320684168E3
:1021200021F0E00141606068B0F5827F0BD1A068CA
:10213000B0F5004F02D0B0F5806F04D1206801687F
:1021400021F040010160A06AB0F5005F0AD120686B
:1021500001684DF6FF72114001602068016841F48A
:1021600000510160012084F85100002084F85000E3
:102170000320BDE8F0812068806836EA000004D0C2
:102180000020B842C1D10020F3E70120F9E77047F1
:10219000FEF706BA10B596B028216846FEF70DF88E
:1021A00014210AA8FEF709F818210FA8FEF705F870
:1021B0000120010442048DE8070004904FF4E01070
:1021C000CDE90810022407946846FEF761FE0F204F
:1021D000CDE90A0400244FF48060CDE90C400221CF
:1021E0000AA80E94FEF73EFD102014940F900FA83D
:1021F000FEF7C2FCFEF7ECFD16B010BD0D480168FD
:1022000041F00101016041680B4A114041600168E1
:102210000A4A11400160016821F48021016041688F
:1022200021F4FE0141604FF41F0181600449C003A5
:1022300008607047001002400000FFF8FFFFF6FE44
:1022400008ED00E02DE9F041044600680169E2680C
:1022500021F44051114301612169A068084361697B
:1022600008432168CA6841F20C639A430243CA607A
:1022700020684169A26921F44071114341614C49D0
:1022800020686425322688423CD1FEF7B7FD00EB7A
:10229000C00101EB001061688900B0FBF1F7FEF7A7
:1022A000ADFD00EBC00101EB00106168B046890094
:1022B000B0FBF1F0B0FBF5F06FF01801484307EB0D
:1022C000800106EB0110B0FBF5F000F0F006FEF720
:1022D00095FD00EBC00101EB001061688900B0FBC7
:1022E000F1F0B0FBF5F006EB0016FEF787FD00EB12
:1022F000C00101EB001061688900B0FBF1F7FEF747
:102300007DFD3BE0FEF76AFD00EBC00101EB001034
:1023100061688900B0FBF1F7FEF760FD00EBC001DA
:1023200001EB00106168B0468900B0FBF1F0B0FB32
:10233000F5F06FF01801484307EB800106EB011040
:10234000B0FBF5F000F0F006FEF748FD00EBC00131
:1023500001EB001061688900B0FBF1F0B0FBF5F013
:1023600006EB0016FEF73AFD00EBC00101EB001092
:1023700061688900B0FBF1F7FEF730FD00EBC001AA
:1023800001EB001061688900B0FBF1F0B0FBF5F0E3
:102390006FF01801484307EB800108EB0110B0FB18
:1023A000F5F0216800F00F0030448860BDE8F0814E
:1023B00000380140D0F8180220B10021C0F81412F2
:1023C000084670470220704770B50546D0F818429D
:1023D00000F04CFBC4F80C02D5F8180248B1D5F84F
:1023E0001C12D4F80402CA6804F503719047002057
:1023F00070BD022070BD70B504460025812100F03B
:10240000A2FA0121204600F09EFA8221204600F027
:102410009AFAD4F8180250B1D4F81C0204F50674E4
:1024200040688047206800F09BFD0020206028461F
:1024300070BD10B5D0E9864159B194F80002FF286B
:1024400007D08B6894F8012221469847FF2084F832
:102450000002002010BD00000A21018000487047E2
:10246000780000204321018000487047C800002008
:1024700043210180004870478400002043210180EF
:10248000004870470C0100202DE9F0410446007C13
:1024900000254FF4007670B34023022281212046AC
:1024A00000F036FB402302220121204600F030FBE1
:1024B000082303228221204600F02AFB4FF40770F4
:1024C00000F050FDC4F81802F0B10746D4F81C0221
:1024D000006880470020C7F81402C7F81802207C63
:1024E000D7F8042290B140230121204600F01CFBC4
:1024F0002846BDE8F081FFE73346022281212046CD
:1025000000F006FB3346CEE70125F1E73346EBE763
:1025100010B5D0F8181269B1027C002AD1F8042253
:1025200005D04023012100F0FFFA002010BD4FF438
:102530000073F7E7022010BD02460220002902D0F6
:102540000020C2F81C127047D0F81802C0F804121C
:1025500000207047D0F81802C0F81022C0F8081206
:102560000020704770B50646D0F8185208780C461F
:1025700010F0600121D0202927D1E288AAB10006FD
:10258000607807D5D6F81C128B6829469847E288F0
:10259000294617E085F80002A07985F80102E28853
:1025A0002946304600F050F80FE0D6F81C1260784B
:1025B00000228B682146984707E060780A2804D1FA
:1025C00003490122304600F059F8002070BD000098
:1025D0007400002010B5D0F8181289B1D1F8142277
:1025E0000AB1012010BD0122C1F81422B1F8102255
:1025F00093B2D1F80822812100F024FB002010BD05
:10260000022010BD10B5D0F8142252689047002067
:1026100010BD134610B50A46002100F085FA0020CF
:1026200010BD134610B50A46002100F00BFB002038
:1026300010BD10B50446802100F0E9FA2046BDE83F
:102640001040002100F0E3BA10B50323C0F80821C0
:10265000C0F8F431C0F80C2113460A46002100F0FE
:1026600063FA002010BD10B505210023C0F8F41155
:102670001A46194600F058FA002010BD10B5022382
:102680008261C0F8F431C26113460A46002100F0AD
:10269000D9FA002010BD10B504210023C0F8F411B0
:1026A0001A46194600F0CEFA002010BD10B50A46B1
:1026B000024903A000F0DEF8004810BDD00A002057
:1026C00043444320436F6E66696700001220088010
:1026D000004870472000002010B50A46024903A0B8
:1026E00000F0C8F8004810BDD00A00204344432041
:1026F000496E74657266616365000000042008809D
:10270000004870471C00002010B50A46024903A08B
:1027100000F0B0F8004810BDD00A002053544D69B5
:1027200063726F656C656374726F6E6963730000CA
:1027300010B50A46024903A000F09CF8004810BDFD
:10274000D00A002053544D3332205669727475619B
:102750006C20436F6D506F727400000010B51A202A
:1027600008800A480168001D0468001D00680818F8
:1027700009D008220649FEF7F5FE0549042210316A
:102780002046FEF7EFFE0248801E10BDE8F7FF1F4F
:1027900036000020F8B5044648880D46010A08298D
:1027A0004BD2DFE801F04A0409174A4A4048D4F8FE
:1027B0001012207C0A6832E0207C02260028D4F81F
:1027C000140205D0C16A684688470146467041E058
:1027D000816AF8E7C0B206282FD2DFE800F00308CC
:1027E0000D12171CD4F81012207C4A6817E0D4F898
:1027F0001012207C8A6812E0D4F81012207CCA687B
:102800000DE0D4F81012207C0A6908E0D4F8101208
:10281000207C4A6903E0D4F81012207C8A6969465A
:102820009047014616E0207C38B9D4F81402416B79
:1028300068468847F5E7207C20B129462046FFF707
:10284000F8FEF8BDD4F81402016B684688470146CB
:1028500007204870BDF800000028F2D0EA88002A5E
:10286000EFD0824200D90246ADF800202046FFF7A3
:1028700005FFF8BD70B5002300281DD004460025D3
:1028800002E06D1CEDB2641C2678002EF9D1022402
:1028900004EB45041480CC545B1C0322CA5400246E
:1028A0005B1C06E0CA545B1CDAB28C54521CD3B2D7
:1028B000401C0278002AF5D170BD01004FF00000E5
:1028C00004D0012901D0022901D002207047012043
:1028D0007047000010B580B1D0F8143213B1002356
:1028E000C0F8143209B1C0F81012012180F8FC11AF
:1028F000027000F0BFF8002010BD05A000F080FEBF
:1029000005A000F07DFE0AA000F07AFE022010BDB6
:102910004552524F523A2000496E76616C696420EC
:102920004465766963652068616E646C65000000CB
:102930000A00000010B5D0F82002FDF711FFBDE835
:102940001040FFF7BABF10B5D0F82002FDF7E8FE3F
:10295000BDE81040FFF7B1BF2DE9F041174604462E
:1029600041B1D4F8140242698AB394F8FC010328F7
:1029700042D043E0D4F8F411002504F114000229F8
:1029800033D1D0E902639E4207D9F31A83609AB229
:1029900039462046FFF745FE12E04068B0FBF3F1F0
:1029A00003FB1101A1B9984212D3D4F8F81188425F
:1029B0000ED2002211462046FFF733FEC4F8F8512C
:1029C00000231A461946204600F0AEF80DE012E04A
:1029D000D4F81402C16829B194F8FC01032801D18C
:1029E000204688472046FFF73EFE94F80002012863
:1029F00004D184F8005201E0204690470020BDE851
:102A0000F08170B51546044641B1D4F814028269CC
:102A10003AB394F8FC01032824D025E0D4F8F4114B
:102A200004F5827003291FD1D0E902218A420BD913
:102A3000531A83600846834200D303469AB229465C
:102A40002046FFF7E6FD0FE0D4F81402016929B132
:102A500094F8FC01032801D1204688472046FFF75F
:102A60001AFE01E020469047002070BDD0F82002F9
:102A7000FDF79ABE10B504461C481D49C0F85C44D9
:102A8000C4F8200201600821416002218160002118
:102A90008161C1610162FDF78FFF08B1FDF754FC50
:102AA0000022D4F820021823114604F50874FDF71B
:102AB0000DFE5823002280212068FDF707FEC02369
:102AC000002281212068FDF701FE4FF48873002267
:102AD00001212068FDF7FAFD4FF480730022822166
:102AE0002068FDF7F3FD002010BD000070060020F7
:102AF000005C00400A06D0F8200201F07F0100EBE4
:102B0000411002D590F82A00704790F82A027047C9
:102B100010B51C461346D0F820022246FDF74CFEA5
:102B2000BDE81040FFF7C9BE10B5D0F82002FDF790
:102B300065FEBDE81040FFF7C0BE70B50022044638
:102B400040231146FFF7E4FF40252B460022802159
:102B50002046C4F81051FFF7DBFF0120256284F8FE
:102B6000FC01D4F8180228B1D4F814022179426883
:102B700020469047002070BD90F8FD1180F8FC11B0
:102B80000020704710B590F8FC11032904D1D0F84B
:102B90001412C96901B18847002010BD01740020DA
:102BA000704710B5D0F82002FDF79FFFBDE8104038
:102BB000FFF783BE70B5044600F50270054600F0CD
:102BC0004AF80120C4F8F401B4F80E02C4F8F80180
:102BD00094F8080210F01F010AD001290DD0022933
:102BE00010D000F08001204600F011F8002070BDE8
:102BF0002946204600F0B3F8F8E72946204600F0C1
:102C000095F9F3E72946204600F022F9EEE710B5E2
:102C1000D0F82002FDF709FEBDE81040FFF74DBED9
:102C200010B5D0F82002FDF77BFFBDE81040FFF79C
:102C300044BE90F8FC1180F8FD11042180F8FC11CD
:102C40000020704710B5D0F82002FDF719FEBDE84E
:102C50001040FFF732BE0A7802704A7842708A78D4
:102C6000CB7802EB032242800A794B7902EB0322F4
:102C700082808A79C97902EB0121C1807047000006
:102C800010B50246002011B1C2F8141210BD05A003
:102C900000F0B6FC05A000F0B3FC0AA000F0B0FC08
:102CA000022010BD4552524F523A2000496E7661C3
:102CB0006C696420436C6173732068616E646C6539
:102CC000000000000A00000010B5D0F81422022411
:102CD0001AB11268904700B90024204610BD0000C8
:102CE00070B50E461A4D897804462970012928D8F6
:102CF00094F8FC01022802D0032822D105E099B102
:102D00000320616084F8FC0109E091B160688842A9
:102D10000AD0C1B22046FFF775FC297861602046D1
:102D2000FFF7D2FF02280CD02046BDE87040FFF725
:102D3000B2BC022084F8FC0120466160FFF762FC0F
:102D4000F2E731462046BDE87040FFF772BC000054
:102D50007000002010B5FFF763FF002010BD2DE9C3
:102D6000F04100264B78012532460A2B43D2DFE89A
:102D700003F03C584251420805422A27FFF70AFD5A
:102D800063E004468888C8B9C888B8B9887800F074
:102D90007F0794F8FC01032810D084F8FE713946AF
:102DA0002046FFF7FEFE2046FFF775FC1FB102200C
:102DB00084F8FC0149E084F8FC5146E020461AE022
:102DC000FFF78EFF41E0CB88012B14D190F8FC3146
:102DD000022B02D0032B0ED104E08260012200F10D
:102DE000080114E00122011D11E090F8FC21022AE3
:102DF00004D0032A02D0FFF71CFC26E0C560D0F8FF
:102E0000041209B10321C160022200F10C01FFF795
:102E100035FC1AE004464888012816D1C4F804524B
:102E20000BE0044690F8FC01022801D00328C5D12C
:102E30004888012809D1C4F80422D4F81402826811
:102E4000204690472046FFF726FC3046BDE8F0813B
:102E500070B50D460446287800260979C0F3411064
:102E6000012806D06878A0B301281FD003283FD1DD
:102E700007E0D4F8140229468268204690470020D3
:102E800070BD94F8FC01022817D003282CD1688863
:102E900028B921B1802902D02046FFF7B8FED4F826
:102EA0001402294682682046904713E094F8FC01FA
:102EB000022802D0032817D103E0C9B180291BD111
:102EC00016E06888A0B9480604D02046FFF732FD16
:102ED000E5E703E02046FFF7DEFB09E094F8FC019C
:102EE000022807D003280BD029462046FFF7A1FB74
:102EF000304670BD4806FBD02046FFF788FEF7E756
:102F0000080601F07F0004EB001501D5143501E03F
:102F100005F582752046FFF7EDFD00B10120286020
:102F2000022229462046FFF7A9FBE1E770B50546D6
:102F300090F8FC010C4603280DD1207901280AD80D
:102F4000D5F81402826828469047E08830B92846B0
:102F5000FFF7A1FB02E02846FFF76BFB002070BDE6
:102F60007047000000487047500400202DE9F047EA
:102F7000CC780A7848F68F1334B1012C6DD0022C2E
:102F800008D0032C13D10BE030F822401C4044F44D
:102F900000730AE030F822401C4020F8224006E08E
:102FA00030F822401C4044F4C06320F822300C78F2
:102FB00030F8245048F68F72154048F280031D43C4
:102FC000254320F824508D7A48F6BF7904274BF624
:102FD0008F7A48F2C0044CF28006EDB30D7830F8D9
:102FE00025C048F280180CEA020C4CEA080C20F8C4
:102FF00025C0CD88B0F850C025F0010591F80080BB
:103000000CEBC80C00EB4C0CCCF800540D89B0F85C
:1030100050C025F0010591F8008007EBC807674410
:1030200000EB4707C7F800544D78002D0D7830F8B5
:1030300025704FEA47477DD0002F05DA30F825701C
:103040001740374320F825700D7830F825707F063B
:1030500008D530F8257001E024E01DE01740274333
:1030600020F825700C7830F824501540354320F8AE
:1030700024500C7830F8242002EA09021A4320F880
:1030800024200A7830F8221001EA0A01194320F8B6
:1030900022100020BDE8F08730F822401C4044F4A4
:1030A000806382E74D78F5B18D88B0F8506025F0E7
:1030B00001050F7806EBC70600EB4606C6F800547C
:1030C0000D7830F82560760605D530F82560164075
:1030D000264320F825600A7830F8221001EA090119
:1030E00081F02001D2E78C88B0F8505024F0010420
:1030F00091F800C007EBCC073D4400EB4505C5F84F
:103100000044B0F850400D78062707EBC5052C4465
:1031100000EB44070C694FF6FF7C07F580673E2CF7
:103120000CD9C4F34F15E40601D16D1EADB20CEA03
:10313000852400E01EE044F4004407E0C4F34F059A
:10314000E40701D06D1CADB20CEA85243C600C781C
:1031500030F824506D0405D530F82450154035431F
:1031600020F824500A7830F8221001EA0A0181F48C
:1031700040518BE7002F05DA30F8257017403743B0
:1031800020F825700D7830F82560760605D530F8E2
:1031900025601640264320F825600E7830F826502A
:1031A0001540254320F826500C7830F8242002EAF8
:1031B0000A0282F440521A4320F824200A7830F898
:1031C000221001EA090161E7002070472DE9F04370
:1031D00091F80A8091F801C00A7848F6BF774BF65B
:1031E0008F7948F2800348F2C0054CF2800648F619
:1031F0008F74B8F1000F2ED0BCF1000F30F822C050
:103200004FEA4C4C4ED0BCF1000F07DA30F822C028
:103210000CEA040C4CEA060C20F822C00A7830F8BC
:1032200022C05FEA4C6C07D530F822C00CEA040CCF
:103230004CEA050C20F822C00A7830F822502540CC
:10324000354320F822500C7830F824203A401A43B5
:1032500020F824201BE0BCF1000F0ED030F82260D3
:10326000760605D530F8226026402E4320F82260ED
:103270000A7830F8221039400EE030F822506D0400
:1032800005D530F822502540354320F822500A78E1
:1032900030F8221001EA0901194320F82210002019
:1032A000BDE8F083BCF1000F07DA30F822C00CEA69
:1032B000040C4CEA060C20F822C00A7830F8226090
:1032C000760605D530F8226026402E4320F822608D
:1032D0000E7830F8262022402A4320F826200C7849
:1032E00030F8242002EA09021A4320F82420BFE71C
:1032F000002070470020704700B50121A0F8401061
:103300000021A0F84010A0F84410A0F8501000F0E0
:103310003AF9002000BD30F8401F21F43D41018002
:10332000002070470020704730B54D780A78002D96
:1033300048F68F7430F8225048F2800312D06D06A0
:1033400007D530F82250254048F2C004254320F824
:1033500022500A7830F8221048F6BF74214081F0DC
:10336000300111E06D0407D530F8225025404CF2B1
:103370008004254320F822500A7830F822104BF6BA
:103380008F74214081F44051194320F8221000200D
:1033900030BD10B50A7848F2800352B1497800294F
:1033A00030F8221010D048F6BF74214081F010018F
:1033B0000FE001884BF6BF72114081F4805181F01B
:1033C00010011943018007E04BF68F74214081F40E
:1033D0008051194320F82210002010BD2DE9F04142
:1033E0000D460646896995F801C00023AA7A02278E
:1033F00028690C4648F28008BCF1010F05D08142D3
:1034000052D90446081AA8614FE0814203D9044604
:10341000081AA86100E0AB617AB1287836F820106C
:103420004906B6F8501007EBC000084406EB400010
:10343000C0F8004412D52A8911E0A3B2AA88304608
:10344000696900F0C8F8B6F85000297807EBC101A7
:10345000084406EB4000C0F800441CE0EA88A3B230
:103460003046696900F0B7F8687848F68F7110B196
:10347000012807D00FE0287836F820200A4048F2CB
:10348000C00105E0287836F820200A404CF280017F
:103490000A4326F82020297836F8210048F6BF7222
:1034A000104080F0300067E0AB6106234FF6FF70FC
:1034B0001AB1BCF1000F1BD056E0B6F850102A78B4
:1034C0003E2C03EBC202114406EB410202F580627E
:1034D00039D9C4F34F11E30632D000BF00EA81208E
:1034E00040F4004002E000BF00EA812010603BE0B1
:1034F000B6F850102A783E2C07EBC202114406EBB6
:10350000410202F580620BD9C4F34F115FEAC46C2B
:1035100001D1491E89B200EA812141F4004108E04D
:10352000C4F34F015FEAC47C01D0491C89B200EAB0
:103530008121116069780029BFD001290AD013E0E8
:10354000491E89B2CAE7C4F34F01E307CCD0491C36
:1035500089B2C9E7B6F85000297807EBC1010844E1
:1035600006EB4000C0F80044297836F821004BF6FD
:103570008F72104080F4405040EA080026F8210085
:103580000020BDE8F08130F8401F41F43F41018048
:10359000002070470148FDF788B900007006002040
:1035A000B0F84400704700005B1C00EB42005B0871
:1035B00000F5806006D000BF30F8042B21F8022B04
:1035C0005B1EF9D170470020704711B98021A0F827
:1035D0004C100020704710B55B1C00EB42005B08EC
:1035E00000F5806009D011F8012B5B1E11F8014B2A
:1035F00042EA042220F8042BF5D110BDFEE70000BA
:103600000FB4054B10B503A9044A029800F018F84E
:1036100010BC5DF814FB0000A33A000888010020EC
:1036200002E008C8121F08C1002AFAD1704770478B
:10363000002001E001C1121F002AFBD170470000E9
:103640002DE9FF4F8DB00F460546002606E02528E0
:103650000BD0DDE90F1290476D1C761C28780028EE
:10366000F5D111B03046BDE8F08F0024A246A14646
:103670000122EC4900E0044315F8013F203B02FA27
:1036800003F00842F7D128782A2810D06FF02F02D3
:103690002878A0F13001092914D80AEB8A0102EB3D
:1036A000410144F0020400EB010A6D1CF0E701CF78
:1036B0005FEA000A03D544F40054CAF1000A44F05A
:1036C00002046D1C28782E2817D115F8010F44F03C
:1036D00004042A280ED06FF02F022878A0F13001C0
:1036E00009290AD809EB890102EB410100EB010924
:1036F0006D1CF2E757F8049B6D1C28786C280FD0DE
:1037000006DC4C2817D068280DD06A2814D104E0B4
:10371000742810D07A280FD10DE044F400140AE088
:1037200044F4801401E044F440146978814202D1E9
:1037300004F580146D1C6D1C2A786E2A1FD00CDCD9
:10374000632A31D004DC002A8BD0582A11D1A3E09F
:10375000642A68D0692A0CD165E0732A2ED004DC73
:103760006F2A73D0702A04D19BE0752A6FD0782A13
:103770006ED01046DDE90F129047761C50E1C4F37D
:103780000250022806D0032809D0042801CF09D00E
:10379000066045E101CFF117C0E9006140E101CFCA
:1037A00006803DE106703BE117F8040B8DF8000040
:1037B00000208DF80100EB46012003E057F804BB20
:1037C0004FF0FF3061074FF0000102D40DE008F127
:1037D0000101884649450FDA8045F8DB1BF80810DF
:1037E0000029F4D108E008F1010188468142FADBA2
:1037F0001BF808100029F6D1DDE90F23AAEB080019
:103800008146214600F036F9304400EB080604E01A
:10381000DDE90F121BF8010B9047B8F10108F7D250
:1038200021464846F7E00A21C4F302534FF0000B4B
:103830000891022B04D001CFC117032B09D00AE055
:10384000FF1D27F00707F7E8020108E032E01FE05C
:1038500020E000B2C117042B01D140B2C117031EF2
:1038600071F1000307DA4FF0000CD0EB0C006CEBA9
:1038700001012D2302E0230504D52B238DF82430EC
:10388000012303E0E30701D02023F7E7984658E03F
:103890000A2110E010210EE010204FF0000B0890DC
:1038A0000CE010214FF0000B44F004044FF0080925
:1038B000089103E008214FF0000B0891C4F3025374
:1038C000022B04D001CF0021032B06D006E0FF1D00
:1038D00027F00707F7E8020103E080B2042B00D1CC
:1038E000C0B24FF0000823072BD5702A07D0DDF8AF
:1038F00020C08CF0100C5CEA0B0C05D00EE04023CD
:103900008DF82430012308E050EA010306D030236B
:103910008DF824308DF8252002239846DDF820C04C
:103920008CF0080C5CEA0B0C0BD150EA010301D1BE
:10393000630706D530238DF824304FF00108A9F134
:103940000109582A04D038A20B9208AA0A920BE067
:103950003AA2F9E75B46089AFCF73AFC0B9B9B5CA2
:103960000A9A521E0A92137050EA0102F2D10A9882
:10397000ADEB000000F1200B600702D524F4803489
:1039800001E04FF00109D94502DDA9EB0B0000E091
:10399000002000EB0B0141440890AAEB010AE00370
:1039A00006D4DDE90F232146504600F063F80644B3
:1039B0004FF0000908E009A911F80900DDE90F122C
:1039C000904709F10109761CC145F4DBE0030CD5F1
:1039D000DDE90F232146504600F04CF8064404E090
:1039E000DDE90F1230209047761C0899481E089098
:1039F0000029F5DC08E00A980A990078491C0A9128
:103A0000DDE90F129047761CBBF10001ABF1010B11
:103A1000F1DC21465046DDE90F2300F019F8064499
:103A20006D1C1BE60928010030313233343536373E
:103A300038396162636465660000000030313233FA
:103A4000343536373839414243444546000000009A
:103A50002DE9F041044600251E461746880404D48B
:103A600005E039462020B0476D1C641EF9D5284674
:103A7000BDE8F0812DE9F041044600251E46904640
:103A8000C80301D5302700E02027880404D505E0CD
:103A900041463846B0476D1C641EF9D52846BDE83E
:103AA000F08113B501216846FCF734FC0128F9D1F7
:103AB000FCF74CFC00981CBD10B5002821D0114B20
:103AC0000022001F196803E0814203D80A464968B2
:103AD0000029F9D152B11368841A9C4204D10068BC
:103AE00018441060104602E0506000E0186039B1E0
:103AF00002680B1A934203D10B681A4402604968AA
:103B0000416010BD8C01002070B54FF480711A4CDB
:103B10004D001A4E07281ED2DFE800F004060C0EF6
:103B200012151900204601E029463046BDE87040D4
:103B3000FCF726BD2946F5E72046FCF721FDF3E713
:103B40002946304600E02046FCF71AFDF2E7204601
:103B5000FCF716FDF4E700222046FCF715FD0022D5
:103B600029463046FCF710FD29462046BDE8704046
:103B70000022FCF709BD00000008014000100140D0
:103B80002DE9F04346A1CDB0D1E90001CDE94801CE
:103B9000FCF70EFDFEF7FEFAFDF700FDFDF784FDD4
:103BA000424841490C2201604FF4E131416000215B
:103BB0008160C160C0E904128161C161FDF766FCEA
:103BC000FDF78EFD42A8FEF73DF802A942A8FEF7D8
:103BD00013F802A942A8FEF70FF830B99DF80A20A1
:103BE0009DF8091032A0FFF70BFD42A8FEF7D2F9AD
:103BF0004FF47A74234600224AA942A8FEF76AF9D4
:103C00000646401C05D035A0FFF7FAFC00244AAD5B
:103C100009E038A0FFF7F4FCECE7295D36A0FFF7D8
:103C2000EFFC641CE4B2B442F7DB2BA0FFF7E8FC26
:103C300033A0FFF7E5FC002448AF4FF06008CDE962
:103C40000087F2B223464AA942A8FEF71FF80100F6
:103C500006D1224602A942A8FEF74AF8010006D082
:103C60002CA0FFF7CDFC4DB00020BDE8F08321462D
:103C70002CA0FFF7C5FC00250DF108091EA019F8BE
:103C80000510FFF7BDFC6D1CEDB2102DF6D312A090
:103C9000FFF7B6FC641CE4B2402CD0D3E3E700008D
:103CA000FFFFFFFFFFFF0000004C0040EC01002081
:103CB000466F756E6420504E3533322077697468D4
:103CC000206669726D776172652076657273696FBF
:103CD0006E3A2025642E25640D0A0000466F756E2D
:103CE0006420636172642077697468205549443A9E
:103CF000200000002E000000253032782000000057
:103D000052656164696E6720626C6F636B732E2EFF
:103D10002E0D0A004572726F723A203078253032CB
:103D2000780D0A0025643A2000000000F0B50B3041
:103D3000154D20F007010024144A0FE003688B4260
:103D40000BD38B4205D95E1A43184768C3E9006755
:103D500000E04368136002C004E0021D1068002800
:103D6000ECD12046002802D1286808B10020F0BD1F
:103D7000064A07481060074A121A22F00702C0E9F3
:103D8000002401202860D7E7900100208C0100204A
:103D9000540D0020500F002008B50A220092024660
:103DA0000B4611460148FDF771FA08BD9401002049
:103DB0000000FF00FF000000000000000000010202
:103DC00003040607080900000000010203040000C4
:103DD000F03D000800000020940100007602000879
:103DE000B83E000894010020BC11000030360008E5
:103DF00013CD261B08FD041309271B0831041A5D87
:103E0000041AAD101AD9041704030904120114028C
:103E10000202164083044057260201020301031ADE
:103E20001A0313D9021B08D3041ACF041AFD04196C
:103E30002F11821084A24A04130A0632022A40205B
:103E40001C0902435B111CC032091F1B01020B132A
:103E5000052416100105240110090104240202059D
:103E60002406170107058203081C10090491320A71
:103E70001D07050102432C070581070938442A4024
:103E8000072A8107112B0907440A2204440A16FF56
:103E9000441389241408F7231408652542081A33AB
:103EA000101AB5101AC904C11A71181A65041A7DBE
:083EB000041A5904C1000000CE
:0400000508000131BD
:00000001FF
