:020000040800F2
:10000000180B0020450100083B120008D110000821
:1000100039120008770200089B1B0008000000004E
:100020000000000000000000000000002F19000880
:100030007902000800000000771800083119000854
:100040005F0100085F0100085F0100085F01000810
:100050005F0100085F0100085F0100085F01000800
:100060007B0200085F0100085F0100085F010008D3
:100070005F0100085F0100085F0100085F010008E0
:100080005F0100085F0100085F0100085F010008D0
:100090005F0100085F0100085F0100085F010008C0
:1000A0005F0100085F0100085F0100085F010008B0
:1000B0005F0100085F0100085F0100085F010008A0
:1000C0005F0100085F0100085F0100085F01000890
:1000D0005F0100085F0100085F0100085F01000880
:1000E0005F0100085F0100085F0100085F01000870
:1000F0005F0100085F0100085F0100085F01000860
:100100005F0100085F0100085F0100085F0100084F
:100110005F0100085F0100085F0100085F0100083F
:100120005F0100085F0100085F0100085F0100082F
:10013000DFF80CD000F07EF8004800471D210008D1
:10014000180B00200648804706480047FEE7FEE7F8
:10015000FEE7FEE7FEE7FEE7FEE7FEE7FEE7FEE777
:100160009D19000831010008202A04DB203A21FAF9
:1001700002F00021704721FA02F3D040C2F12002C0
:10018000914008431946704740EA01039B0703D09A
:1001900009E008C9121F08C0042AFAD203E011F8C6
:1001A000013B00F8013B521EF9D27047D2B201E088
:1001B00000F8012B491EFBD270470022F6E710B56C
:1001C00013460A4604461946FFF7F0FF204610BDC5
:1001D0002DE9F05F0546002092469B46884606467C
:1001E000814640241BE02846414647462246FFF709
:1001F000BBFF53465A46C01A914110D311461846C8
:10020000224600F029F82D1A67EB01084F462246D6
:100210000120002100F020F817EB00094E41201EBC
:10022000A4F10104DFDC484631462A464346BDE8D6
:10023000F09F0000064C074D06E0E06840F0010327
:1002400094E8070098471034AC42F6D3FFF774FFE8
:10025000AC230008CC230008202A04DB203A00FA53
:1002600002F1002070479140C2F1200320FA03F30D
:10027000194390407047FEE77047042000F01AB819
:1002800070B5044600F020F90546601C02D0044811
:100290000078044400F018F9401BA042FAD370BD66
:1002A00000000020042801D000BF7047052001F0A5
:1002B000F9BE0000044910B50A68024202D0086085
:1002C000FFF7F0FF10BD0000140401402DE9F84FC6
:1002D000DFF8B8A100220AF1040B144601274FF001
:1002E0000F090BF1040E00BF0B6807FA04F52B4051
:1002F000AB4274D1DFF898C14E68A6EB0C08664596
:100300002BD00DDC032E34D005DC36B3012E19D0F2
:10031000022E2FD11BE0112E16D0122E2AD119E059
:10032000B8F5881F19D006DCB8F5803F15D0B8F5B0
:10033000801F1FD111E0B8F5001F0ED0B8F5041FC3
:1003400018D10AE0CA6815E0CA68121D12E0CA682E
:1003500008320FE0CA680C320CE08A682AB1012A20
:100360004FF0080203D0456104E0042202E0056179
:1003700000E00022FF2B01D8064601E000F1040650
:100380004FEA840501D9A5F12005D6F800C009FA85
:1003900005F82CEA080C02FA05F54CEA050CC6F83B
:1003A00000C04D68ED006AD53A4DAE6946F00106D1
:1003B000AE61AD6924F0030605F001050095364DE8
:1003C00006EB050CDCF80850A6074FEA167809FA88
:1003D00008F6B543314EB04202D100261AE04EE095
:1003E0002F4EB04201D1012614E02E4EB04201D171
:1003F00002260FE02C4EB04201D103260AE02B4E1C
:10040000B04201D1042605E0294EB04201D10526B3
:1004100000E0062606FA08F62E43CCF808604D6880
:10042000DAF80060ED03554601D51E4300E09E4317
:100430002E604D68AD0305D5DBF800601E43CBF898
:10044000006004E0DBF800509D43CBF800504D689D
:10045000DEF80060ED02754601D51E4300E09E43C4
:100460002E604D68AD0205D5084D0C352E681E4333
:100470002E6004E0054E0C3635689D433560641CE3
:10048000102CFFF431AFBDE8F88F000000040140EC
:10049000000011100010024000000140000801405F
:1004A000000C014000100140001401400018014000
:1004B000001C0140C2684A40C26070470AB1016135
:1004C00070470904FBE7000001488068704700009E
:1004D0000000002002488168027811448160704762
:1004E00000000020074810B5016841F010010160CC
:1004F000032000F073F8002000F006F800F024F864
:10050000002010BD0020024070B50D4D04464FF490
:100510007A712878B1FBF0F00A490968B1FBF0F074
:1005200000F058FD48B9102C07D200222146501E79
:1005300000F034F800206C6070BD012070BD000038
:10054000000000200C0000200C4808B5816941F033
:1005500001018161816901F001010091C16941F0EE
:100560008051C161C06900F080500090044841682A
:1005700021F0E06141F00071416008BD00100240CF
:100580000000014000F01F0201219140400980005D
:1005900000F1E020C0F8001170470000F0B40E4BED
:1005A0001B680C46C3F30223C3F10705042D00D9D1
:1005B0000425191D072901D2002300E0DB1E0126B6
:1005C00006FA05F1491E214099409E40761E1640CC
:1005D0003143F0BC00F032BE0CED00E0064900F003
:1005E000070208684FF6FF03184040EA0220034A5A
:1005F00010430860704700000CED00E00000FA05B1
:100600002DE9F04186B004004FF0000504D094F8C5
:100610002904002620B108E0012006B0BDE8F081E1
:1006200084F82864204600F04BF8032084F829045D
:10063000206801F0A2FA04F11001142288466846ED
:10064000FFF7A2FD94E80F0001F084FA0021206872
:1006500001F0A1FA5FF0010704EB451080F8297062
:1006600000F8285F8581C670066146616D1C866151
:100670000F2DF1D35FF0000004EB401181F82962E7
:1006800081F82802888681F82B62C1F83862C1F8A7
:100690003C62401CC1F840620F28EDD31422414651
:1006A0006846FFF771FD94E80F0001F057FA84F8EF
:1006B000246084F82974206801F04EFA0020ACE729
:1006C00008B500680649884208D10648C16941F466
:1006D0000001C161C06900F40000009008BD000085
:1006E000005C0040001002402DE9F8430546007808
:1006F000354CC00754D0E0690026C00008D4E0693A
:1007000040F08050E061E069012600F080500090E8
:100710002E480168C90512D40168804641F48071F1
:100720000160FFF7D1FE074605E000BFFFF7CCFEF2
:10073000C01B642823D8D8F80000C005F6D5206A6D
:1007400010F4407021D0A98801F4407181421CD07E
:10075000206A1F49012220F440700A6000220A60CA
:100760002062C00711D0FFF7AFFE074641F288387C
:1007700008E000BFFFF7A8FEC11B414502D90320D6
:10078000BDE8F883206A8007F4D5206A696820F400
:100790004070084320621EB1E06920F08050E061A3
:1007A0002878800705D56068A96820F44040084390
:1007B00060602878C00605D56068696920F480000B
:1007C000084360600020DBE700100240007000403A
:1007D000400442422DE9F047DFF8548105460E46B9
:1007E000D8F8000000F00700B0420CD2D8F8001092
:1007F00021F007013143C8F80010D8F8000000F0DC
:100800000700B0426FD128684A4C810712D54007D3
:1008100003D5606840F4E06060602878000703D585
:10082000606840F4605060606068A96820F0F00083
:10083000084360602878C00744D06868012816D053
:100840002168022816D0890700294CDA616821F056
:10085000030101436160FFF737FE6968074641F213
:10086000883001290ED00229814618D026E021685F
:100870008903E9E78901E7E7FFF726FEC11B494540
:1008800001D918E081466068C0F381000128F3D1E6
:1008900018E000BFFFF718FEC11B49450BD8606880
:1008A000C0F381000228F5D10CE000BFFFF70CFE79
:1008B000C11B494502D90320BDE8F087606810F0EC
:1008C0000C0FF3D1D8F80010404601F00701B142F7
:1008D0000BD9016821F0070131430160006800F085
:1008E0000700B04201D00120E6E72878400705D58F
:1008F0006068E96820F4E0600843606028780007D9
:1009000006D56068296920F4605040EAC100606043
:1009100000F03CF86168084AC1F30311515CC8401B
:10092000064908600020FFF7EFFD0020C4E7000043
:100930000020024000100240922300080C0000201A
:1009400001490120C864704700004242044805493B
:1009500000684968044AC1F30221515CC8407047ED
:100960000C00002000100240A223000804480549A2
:1009700000684968044AC1F3C221515CC84070470D
:100980000C00002000100240A223000813A185B033
:100990000FC98DE80F0015A0154A00680490516832
:1009A00001F00C00042804D0082804D0114805B038
:1009B00070471148FBE7C1F38343C9031DF80300E7
:1009C00009D5516804AAC1F34041515C0A4A504319
:1009D000B0FBF1F0EBE709494843E8E702030405FF
:1009E000060708090A0B0C0D0E0F1010010200007B
:1009F0000010024000127A000024F40000093D00BB
:100A00002DE9F84F04460078B94DC00748D0686812
:100A1000C0F38100012807D06868C0F38100022874
:100A200009D16868C00306D52868800338D5606896
:100A300000286FD034E06068B0F5803F0BD010B173
:100A4000B0F5A02F11D0286820F4803028602868E5
:100A500020F4802002E0286840F48030286060683C
:100A600088B1FFF731FD064609E0286840F4802090
:100A70002860F0E7FFF728FD801B642875D82868F8
:100A80008003F7D50CE0FFF71FFD064605E000BF29
:100A9000FFF71AFD801B6428F0D828688003F7D47C
:100AA0002078944E80074FF001094FF000083BD5A5
:100AB000686810F00C0F07D06868C0F38100022846
:100AC00009D16868C00306D42868800714D5206956
:100AD00001281FD110E02069B0B1C6F80090FFF7DF
:100AE000F3FC074605E000BFFFF7EEFCC01B022841
:100AF000C4D828688007F7D52868616920F0F80015
:100B000040EAC10028600FE0C6F80080FFF7DCFC77
:100B1000074606E0E9E000BFFFF7D6FCC01B02284D
:100B200023D828688007F7D4207800072CD572488E
:100B3000A169D9B1C0F80090FFF7C6FC074604E0F0
:100B4000FFF7C2FCC01B02280FD8686A8007F7D5E0
:100B50006A484FF4FA510068B0FBF1F0009000BF12
:100B60000098411E0091FAD20EE080E0C0F80080AB
:100B7000FFF7AAFC074604E0FFF7A6FCC01B02280B
:100B800075D8686A8007F7D42078400760D5E8698F
:100B90000027C00008D4E86940F08050E861E869A7
:100BA000012700F08050009055480168C90513D412
:100BB0000168834641F480710160FFF785FC82463D
:100BC00006E000BFFFF780FCA0EB0A0064284ED8C7
:100BD000DBF80000C005F5D5E06801280AD008B1AF
:100BE000052813D0286A20F001002862286A20F026
:100BF000040002E0286A40F001002862E06841F247
:100C0000883B98B1FFF760FC82460BE0286A40F011
:100C100004002862EEE700BFFFF756FCA0EB0A01D4
:100C200059455AD8286A8007F6D50CE0FFF74CFCE6
:100C3000824605E0FFF748FCA0EB0A0159454CD875
:100C4000286A8007F6D41FB1E86920F08050E86177
:100C5000E06988B36968C1F38101022945D002289F
:100C6000C6F8608004D0FFF72FFC044638E034E07B
:100C7000FFF72AFC074604E0FFF726FCC01B02280A
:100C80002BD828688001F7D4206AB0F5803F05D1C1
:100C90006868A16820F4003008436860D4E908015E
:100CA0000843696821F4741108436860C6F86090CD
:100CB000FFF70AFC044606E015E000BFFFF704FC5E
:100CC000001B022809D828688001F7D50BE000BF77
:100CD000FFF7FAFB001B022802D90320BDE8F88FBA
:100CE00028688001F4D40020F8E70120F6E700002E
:100CF0000010024000004242800442420C000020EA
:100D00000070004070B5040005D00025A56294F87D
:100D1000510010B104E0012070BD204600F034F80D
:100D2000022084F851002068016821F04001016030
:100D3000D4E901010843D4E903121143084361696E
:100D40000843218B01F400710843E1690843216ADB
:100D50000843A16A084321680860A069042101EAE8
:100D60001040616A0843216848602168E06A0861B0
:100D70002068C16921F40061C1616565012084F8C2
:100D80005100002070BD000030B585B000240094F3
:100D900001940294039400681549884225D11548AE
:100DA000C16941F48041C161C16901F4804104918C
:100DB000816941F00801816180690F4D00F00800F0
:100DC00004904FF4304000900220019003200390E3
:100DD00069462846FFF77AFA4FF48040CDE90004CF
:100DE000694628460294FFF771FA05B030BD00004D
:100DF0000038004000100240000C01402DE9F84F7F
:100E0000044690F8500000260A9F9A4693460D46E5
:100E10004FF0010801280ED0012084F85000FFF7A0
:100E200053FB814694F85100616801280CD0B1F55C
:100E3000827F07D102E00220BDE8F88FA16809B9DE
:100E4000042801D00226BDE055B1BBF1000F07D048
:100E5000BAF1000F04D094F85100012802D004E048
:100E60000126AFE0052084F8510000206065C4F839
:100E700038B0A4F83EA0A4F83CA02563A4F836A09E
:100E8000A4F834A02064606420680168490603D493
:100E9000016841F040010160E068B0F5006F6068F2
:100EA00004D0E8B3E08E01283BD06AE010B1E08EB8
:100EB00001282ED1216835F8020BC860E08E401E53
:100EC000E08626E0B8F1000F0DD0E08E58B1206822
:100ED0008168890707D535F8021BC160E08E401E86
:100EE000E0864FF00008E08F58B120688168C9079C
:100EF00007D0C0682BF8020BE08F401EE0874FF050
:100F00000108781C05D0FFF7DFFAA0EB0900B84212
:100F100046D2E08E0028D5D1E08F0028D2D136E02D
:100F2000FFE7216815F8010B0873E08E401EE0868C
:100F300027E000BFB8F1000F0DD0E08E58B1206857
:100F40008168890707D515F8011B0173E08E401EE3
:100F5000E0864FF00008E08F58B120688168C9072B
:100F600007D0C0680BF8010BE08F401EE0874FF000
:100F70000108781C05D0FFF7A7FAA0EB0900B842DA
:100F80000ED2E08E0028D5D1E08F0028D2D13B468A
:100F9000012202212046CDF8009000F07DFC08B12E
:100FA00003260FE04A463946204600F065FC18B19A
:100FB00001262020606505E0A06818B92068C16896
:100FC00080680090012084F85100002084F85000CF
:100FD000304631E710B5401EB0F1807F01D30120CB
:100FE00010BD4FF0E02460610F21601700F026F97A
:100FF0000020A06107202061002010BD70B5040012
:1010000004D094F83900002510B106E0012070BD2D
:1010100084F83850204600F023F8242084F8390062
:101020002068C16821F40051C160204600F0DAFC5C
:101030002068016921F4904101612068416921F033
:101040002A0141612068C16841F40051C160E56333
:10105000202084F8390084F83A00002070BD000098
:1010600030B585B000240094019402940394006884
:101070001449884224D11448C16941F40021C16156
:10108000C16901F400210491816941F0100181617D
:1010900080690E4D00F0100004904FF480600090C5
:1010A000022001900320039069462846FFF70EF9BD
:1010B000E814CDE90004694628460294FFF706F9D2
:1010C00005B030BD004C004000100240001001404F
:1010D000FEE7000007490968C9070AD005498039B9
:1010E0000968C90705D04FF060410A68002AFCD0A2
:1010F00008707047800E00E02DE9F04786B00024AC
:101100003A480094019402940394816941F02001CB
:101110008161816901F020010491816941F004013C
:101120008161816901F004010491816941F0080144
:101130008161816901F008010491816941F0100128
:1011400081618069DFF8A88000F010004FF400751D
:101150000490002229464046FFF7B0F9DFF894904A
:101160004FF44077002239464846FFF7A7F9DFF8E9
:1011700088A0002238215046FFF7A0F904200090F3
:101180001E48CDE9010469464846FFF79FF88020D4
:1011900000901B48CDE9010469464046FFF796F8E8
:1011A0000095022601250396CDE901546946404683
:1011B000FFF78CF800970396CDE90154694648463D
:1011C000FFF784F83820CDE90005CDE902466946ED
:1011D0005046FFF77BF8002211460820FFF7DEF9A2
:1011E0000820FFF7CFF906B0BDE8F08700100240F5
:1011F0000010014000080140000C014000002110D7
:10120000000011100B480A494FF4802201604FF48E
:101210008271416000218160C1600161C0E90512F5
:10122000C1610162416281620A21C162FFF76ABD48
:10123000003800401C000020FEE770470907090E37
:10124000002806DA00F00F0000F1E02080F8141DFD
:10125000704700F1E02080F8001470472DE9F04756
:10126000C0B00F4604469146D420DDE948218DF8F0
:1012700000001E46DDF828A18DF8017000206D46A3
:1012800006E0135C05EB000C401C8CF80230C0B289
:101290008842F6D3891C8AB22946204600F0AEFA6D
:1012A0004FF0FF3820B12069804720A061690FE02E
:1012B000E1685046884708B362680621684690474F
:1012C0001F4900200A5C2B5C9A4203D061691DA073
:1012D000884713E0401CC0B20628F3D3E1685046AB
:1012E000884758B1B01C82B26946204600F016F912
:1012F00001469DF80000D52809D103E0404640B0E2
:10130000BDE8F0879DF801007F1CB84202D018A00C
:101310006169DDE7002005E02A18937809F80030BC
:10132000401CC0B2B042F7D3881EE8E75472796916
:101330006E6720746F2077616B6575700000000028
:101340008C230008446964206E6F742072656365A5
:101350006976652065787065637465642041434BE8
:101360002066726F6D20504E353332210000000030
:10137000526563656976656420756E65787065632E
:1013800074656420636F6D6D616E64207265737047
:101390006F6E7365210000003EB5044600204FF4D7
:1013A000FA720090CDE901020A4604230221204688
:1013B000FFF754FF401C01D000203EBD616902A030
:1013C00088474FF0FF303EBD4661696C656420740C
:1013D0006F206465746563742074686520504E35B1
:1013E00033320000064901600649416006498160C8
:1013F0000649C160064901610649416100F0CEB964
:1014000031170008DD140008C51700085D17000833
:101410009D1700081914000810B500F0BFFBBDE8C7
:10142000104001A000F0BABB0D0A0000F0B589B071
:1014300016A6DDE90E453668089601268DF80C6083
:101440008DF80D408DF80E30002303ACEE5CE718EC
:101450005B1CDBB2FE70062BF8D3002304E0CD5CEE
:10146000E6185B1C7572DBB29342F8D34FF47A71C5
:1014700009320094CDE90121012308AA4021FFF798
:10148000EDFE9DF8200009B0F0BD0000FF00000057
:1014900010B50C4610A18AB0096808918DF8222079
:1014A0004FF47A73032208A98DE80E00112303AAD2
:1014B0004021FFF7D3FE9DF80C00002809D103A9B5
:1014C0000A1852782254401CC0B21028F8D39DF854
:1014D0000C000AB010BD00000130000070B50646D7
:1014E0000C46481C00F010FF05460320287005201C
:1014F000FEF7C6FE601CC1B2284600F03BFF00208C
:1015000004E0291849783154401CC0B2A042F8D3F5
:10151000284600F09FFD002070BD00002DE9F0413D
:1015200005460026D01D14468846C2B081B26A68BE
:10153000684690470020471E6946083406E0401C74
:10154000C0B2A04202D31EA0696927E00A5C002A4B
:10155000F5D0D2B2FF2AF6D1401CC3B2A34202D3C7
:1015600024A069691AE0C818CA5C4078104410F0D9
:10157000FF0F02D026A0696910E00020541C08E08B
:1015800003EB000C8C44401C9CF802C0C0B26644C3
:10159000F6B2A042F4D336B1696929A0884738462B
:1015A00042B0BDE8F081002006E01C180C44A5788C
:1015B00008F80050401CC0B29042F6D31046EFE746
:1015C000526573706F6E7365206672616D65207011
:1015D0007265616D626C6520646F6573206E6F74F7
:1015E00020636F6E7461696E20307830304646211A
:1015F00000000000526573706F6E736520636F6E3C
:101600007461696E73206E6F2064617461210000E3
:10161000526573706F6E7365206C656E67746820B9
:10162000636865636B73756D20646964206E6F74A5
:10163000206D61746368206C656E677468210000BA
:10164000526573706F6E736520636865636B737545
:101650006D20646964206E6F74206D61746368200E
:10166000657870656374656420636865636B737522
:101670006D00000070B504461AA08AB000680D46DF
:10168000089008A98DF8212000910220CDE90103DE
:10169000132303AA4A212046FFF7E0FD4FF0FF364F
:1016A000002802DA30460AB070BD9DF80C0001280F
:1016B00002D00DA0616905E09DF81100072803D94B
:1016C000616911A08847EDE7002003A904E00A182A
:1016D00092792A54401CC0B29DF811208242F6D85B
:1016E000D0B2E0E7010000004D6F726520746861C0
:1016F0006E206F6E6520636172642064657465633B
:101700007465642100000000466F756E642063619B
:101710007264207769746820756E6578706563748B
:1017200065646C79206C6F6E672055494421000018
:10173000002070471FB508A14FF47A730968039120
:10174000032203A98DE80E0000231A461421FFF797
:1017500085FD04B0002010BD0114010038B5054618
:101760000DA000680090FEF7AFFE04460DE00A20D1
:10177000FEF786FD0221684600F0FCFD9DF80100A1
:10178000012808D00520FEF77BFDFEF79DFE001B1B
:10179000A842ECD3002038BD0200000038B500207C
:1017A0004FF47A7400902046FEF76AFD0220FEF79F
:1017B00067FD0121684600F0DDFD2046FEF760FD73
:1017C000002038BD70B506460C46481C00F09CFD54
:1017D000054601202870002004E0315C2A18401CD6
:1017E0005170C0B2A042F8D3641CE1B2284600F0A8
:1017F000C1FD284600F02EFC002070BDF0B5074664
:10180000501EC3B04FF0FF35FF2831D200248DF8B1
:1018100000408DF80140FF208DF80200A4462046CC
:101820006E46335C401C2344C0B2DCB20328F8D3BC
:10183000D043401C8DF803208DF80400002309E0FC
:1018400006EB030EC85C8EF80500C85C5B1C2044E8
:10185000C4B2DBB29342F3D3E143B018D21D41715D
:1018600080F806C091B2BA6830469047002800D090
:10187000284643B0F0BD704738B50B460092044689
:101880000022802100F008F8002804D0606D40F0AC
:1018900020006065032038BD2DE9F0411D46174644
:1018A0000E460446DDF8188035E0681C33D02DB1B3
:1018B000FEF70AFEA0EB0800A8422CD3206841687E
:1018C00021F0E00141606068B0F5827F0BD1A06833
:1018D000B0F5004F02D0B0F5806F04D120680168E8
:1018E00021F040010160A06AB0F5005F0AD12068D4
:1018F00001684DF6FF72114001602068016841F4F3
:1019000000510160012084F85100002084F850004B
:101910000320BDE8F0812068806836EA000004D02A
:101920000020B842C1D10020F3E70120F9E7704759
:10193000FEF7D0BD10B596B028216846FEF73DFCF5
:1019400014210AA8FEF739FC18210FA8FEF735FC70
:101950000120010442048DE8070004904FF4E010D8
:10196000CDE90810022407946846FFF749F80F20D4
:10197000CDE90A0400244FF48060CDE90C40022137
:101980000AA80E94FEF726FF102014940F900FA8BB
:10199000FEF7AAFEFEF7D4FF16B010BD0D48016891
:1019A00041F00101016041680B4A1140416001684A
:1019B0000A4A11400160016821F4802101604168F8
:1019C00021F4FE0141604FF41F0181600449C0030E
:1019D00008607047001002400000FFF8FFFFF6FEAD
:1019E00008ED00E02DE9F041044600680169E26875
:1019F00021F44051114301612169A06808436169E4
:101A000008432168CA6841F20C639A430243CA60E2
:101A100020684169A26921F44071114341614C4938
:101A200020686425322688423CD1FEF79FFF00EBF8
:101A3000C00101EB001061688900B0FBF1F7FEF70F
:101A400095FF00EBC00101EB00106168B046890012
:101A5000B0FBF1F0B0FBF5F06FF01801484307EB75
:101A6000800106EB0110B0FBF5F000F0F006FEF788
:101A70007DFF00EBC00101EB001061688900B0FB45
:101A8000F1F0B0FBF5F006EB0016FEF76FFF00EB90
:101A9000C00101EB001061688900B0FBF1F7FEF7AF
:101AA00065FF3BE0FEF752FF00EBC00101EB0010C9
:101AB00061688900B0FBF1F7FEF748FF00EBC00159
:101AC00001EB00106168B0468900B0FBF1F0B0FB9B
:101AD000F5F06FF01801484307EB800106EB0110A9
:101AE000B0FBF5F000F0F006FEF730FF00EBC001B0
:101AF00001EB001061688900B0FBF1F0B0FBF5F07C
:101B000006EB0016FEF722FF00EBC00101EB001010
:101B100061688900B0FBF1F7FEF718FF00EBC00128
:101B200001EB001061688900B0FBF1F0B0FBF5F04B
:101B30006FF01801484307EB800108EB0110B0FB80
:101B4000F5F0216800F00F0030448860BDE8F081B6
:101B500000380140002070470020704700B5012187
:101B6000A0F840100021A0F84010A0F84410A0F800
:101B7000501000F009F8002000BD30F8401F21F49B
:101B80003D4101800020704730F8401F41F43F4143
:101B900001800020704700207047FEE70FB4054B1E
:101BA00010B503A9044A029800F018F810BC5DF8BB
:101BB00014FB0000412000081000002002E008C8CB
:101BC000121F08C1002AFAD170477047002001E0B7
:101BD00001C1121F002AFBD1704700002DE9FF4F01
:101BE0008DB00F460546002606E025280BD0DDE91E
:101BF0000F1290476D1C761C28780028F5D111B083
:101C00003046BDE8F08F0024A246A1460122EC49EF
:101C100000E0044315F8013F203B02FA03F00842BC
:101C2000F7D128782A2810D06FF02F022878A0F159
:101C30003001092914D80AEB8A0102EB410144F072
:101C4000020400EB010A6D1CF0E701CF5FEA000A15
:101C500003D544F40054CAF1000A44F002046D1C98
:101C600028782E2817D115F8010F44F004042A28EB
:101C70000ED06FF02F022878A0F1300109290AD880
:101C800009EB890102EB410100EB01096D1CF2E750
:101C900057F8049B6D1C28786C280FD006DC4C2864
:101CA00017D068280DD06A2814D104E0742810D009
:101CB0007A280FD10DE044F400140AE044F48014B3
:101CC00001E044F440146978814202D104F58014A3
:101CD0006D1C6D1C2A786E2A1FD00CDC632A31D053
:101CE00004DC002A8BD0582A11D1A3E0642A68D0E2
:101CF000692A0CD165E0732A2ED004DC6F2A73D0D8
:101D0000702A04D19BE0752A6FD0782A6ED01046D5
:101D1000DDE90F129047761C50E1C4F3025002280F
:101D200006D0032809D0042801CF09D0066045E178
:101D300001CFF117C0E9006140E101CF06803DE12C
:101D400006703BE117F8040B8DF8000000208DF8B9
:101D50000100EB46012003E057F804BB4FF0FF30D1
:101D600061074FF0000102D40DE008F1010188463F
:101D700049450FDA8045F8DB1BF808100029F4D13B
:101D800008E008F1010188468142FADB1BF80810DF
:101D90000029F6D1DDE90F23AAEB08008146214690
:101DA00000F036F9304400EB080604E0DDE90F12DC
:101DB0001BF8010B9047B8F10108F7D221464846BD
:101DC000F7E00A21C4F302534FF0000B0891022BF5
:101DD00004D001CFC117032B09D00AE0FF1D27F063
:101DE0000707F7E8020108E032E01FE020E000B258
:101DF000C117042B01D140B2C117031E71F10003BA
:101E000007DA4FF0000CD0EB0C006CEB01012D2336
:101E100002E0230504D52B238DF82430012303E0B1
:101E2000E30701D02023F7E7984658E00A2110E0A5
:101E300010210EE010204FF0000B08900CE0102154
:101E40004FF0000B44F004044FF00809089103E040
:101E500008214FF0000B0891C4F30253022B04D069
:101E600001CF0021032B06D006E0FF1D27F0070756
:101E7000F7E8020103E080B2042B00D1C0B24FF0BA
:101E8000000823072BD5702A07D0DDF820C08CF07E
:101E9000100C5CEA0B0C05D00EE040238DF82430CA
:101EA000012308E050EA010306D030238DF82430E6
:101EB0008DF8252002239846DDF820C08CF0080C10
:101EC0005CEA0B0C0BD150EA010301D1630706D584
:101ED00030238DF824304FF00108A9F10109582A68
:101EE00004D038A20B9208AA0A920BE03AA2F9E7B2
:101EF0005B46089AFEF76CF90B9B9B5C0A9A521E94
:101F00000A92137050EA0102F2D10A98ADEB000078
:101F100000F1200B600702D524F4803401E04FF07B
:101F20000109D94502DDA9EB0B0000E0002000EB20
:101F30000B0141440890AAEB010AE00306D4DDE955
:101F40000F232146504600F063F806444FF0000985
:101F500008E009A911F80900DDE90F12904709F11D
:101F60000109761CC145F4DBE0030CD5DDE90F2344
:101F70002146504600F04CF8064404E0DDE90F121B
:101F800030209047761C0899481E08900029F5DCFF
:101F900008E00A980A990078491C0A91DDE90F12B5
:101FA0009047761CBBF10001ABF1010BF1DC21463F
:101FB0005046DDE90F2300F019F806446D1C1BE6BE
:101FC000092801003031323334353637383961620F
:101FD00063646566000000003031323334353637D3
:101FE0003839414243444546000000002DE9F041A4
:101FF000044600251E461746880404D405E03946E9
:102000002020B0476D1C641EF9D52846BDE8F0813C
:102010002DE9F041044600251E469046C80301D52F
:10202000302700E02027880404D505E041463846E3
:10203000B0476D1C641EF9D52846BDE8F08100004C
:10204000034A914201D1FFF745B84FF0FF30704786
:102050001000002010B5002821D0114B0022001FD5
:10206000196803E0814203D80A4649680029F9D17A
:1020700052B11368841A9C4204D10068184410605D
:10208000104602E0506000E0186039B102680B1A97
:10209000934203D10B681A4402604968416010BD45
:1020A0001400002070B54FF480711A4C4D001A4E88
:1020B00007281ED2DFE800F004060C0E12151900E6
:1020C000204601E029463046BDE87040FEF7F2B9EF
:1020D0002946F5E72046FEF7EDF9F3E729463046B5
:1020E00000E02046FEF7E6F9F2E72046FEF7E2F9C7
:1020F000F4E700222046FEF7E1F9002229463046A7
:10210000FEF7DCF929462046BDE870400022FEF7C4
:10211000D5B9000000080140001001402DE9F0434E
:102120004DA1CDB0D1E90001CDE94801FEF7DAF9C2
:10213000FFF700FCFEF7E0FF4A4849490024016030
:10214000082141608461C461022104628160FEF75C
:1021500057FAFFF757F843484349403801604FF4B6
:10216000E131C0E901140C21C460C0E9044184617B
:10217000C461FEF743FF42A8FFF734F902A942A861
:10218000FFF70AF902A942A8FFF706F930B99DF84E
:102190000A209DF8091035A0FFF700FD42A8FFF7BF
:1021A000C9FA3DA0FFF7FAFC4FF47A7423460022E7
:1021B0004AA942A8FFF75EFA0646401C05D03EA099
:1021C000FFF7ECFC00244AAD09E041A0FFF7E6FC74
:1021D000ECE7295D3FA0FFF7E1FC641CE4B2B442E8
:1021E000F7DB2CA0FFF7DAFC3CA0FFF7D7FC0024BC
:1021F00048AF4FF06008CDE90087F2B223464AA904
:1022000042A8FFF713F9010006D1224602A942A80D
:10221000FFF73EF9010006D035A0FFF7BFFC4DB037
:102220000020BDE8F083214635A0FFF7B7FC00256C
:102230000DF1080927A019F80510FFF7AFFC6D1C78
:10224000EDB2102DF6D313A0FFF7A8FC641CE4B286
:10225000402CD0D3E3E70000FFFFFFFFFFFF0000AB
:10226000005C0040B4000020004C0040466F756EDA
:102270006420504E35333220776974682066697265
:102280006D776172652076657273696F6E3A20258D
:10229000642E25640D0A000057616974696E672019
:1022A000666F7220524649442F4E46432063617246
:1022B000642E2E2E0D0A0000466F756E6420636139
:1022C00072642077697468205549443A2000000000
:1022D0002E00000025303278200000005265616435
:1022E000696E6720626C6F636B732E2E2E0D0A0071
:1022F0004572726F723A203078253032780D0A00BC
:1023000025643A2000000000F0B50B30154D20F098
:1023100007010024144A0FE003688B420BD38B4261
:1023200005D95E1A43184768C3E9006700E04368AF
:10233000136002C004E0021D10680028ECD12046A2
:10234000002802D1286808B10020F0BD064A0748DD
:102350001060074A121A22F00702C0E90024012087
:102360002860D7E718000020140000201C0500207A
:102370001807002008B50A22009202460B461146B3
:102380000148FEF73BFD08BD1C0000200000FF00D7
:10239000FF00000000000000000001020304060727
:1023A000080900000000010203040000CC2300081B
:1023B000000000201C000000BC1B0008E8230008EF
:1023C0001C000020FC0A0000CC1B000801000000DB
:1023D000100000000000000000A24A0400000000FD
:0823E0000000000000000000F5
:0400000508000131BD
:00000001FF
