:020000040800F2
:10000000484D002045010008DB140008E5120008F7
:10001000D91400082B020008D12C000800000000B1
:10002000000000000000000000000000611800084F
:100030009D020008000000005F1800086318000817
:100040005F0100085F0100085F0100085F01000810
:100050005F0100085F0100085F0100085F01000800
:100060009F0200085F0100085F0100085F010008AF
:100070005F0100085F0100085F0100085F010008E0
:100080005F0100085F0100085F0100085F010008D0
:10009000692C00085F0100085F0100085F0100088B
:1000A0005F0100085F0100085F0100085F010008B0
:1000B0005F0100085F0100085F0100085F010008A0
:1000C0005F0100085F0100085F0100085F01000890
:1000D0005F0100085F0100085F0100085F01000880
:1000E0005F0100085F0100085F0100085F01000870
:1000F0005F0100085F0100085F0100085F01000860
:100100005F0100085F0100085F0100085F0100084F
:100110005F0100085F0100085F0100085F0100083F
:100120005F0100085F0100085F0100085F0100082F
:10013000DFF80CD000F03CF800480047CD2D000857
:10014000484D00200648804706480047FEE7FEE786
:10015000FEE7FEE7FEE7FEE7FEE7FEE7FEE7FEE777
:10016000D11800083101000840EA01039B0703D0C1
:1001700009E008C9121F08C0042AFAD203E011F8E6
:10018000013B00F8013B521EF9D27047D2B201E0A8
:1001900000F8012B491EFBD270470022F6E710B58C
:1001A00013460A4604461946FFF7F0FF204610BDE5
:1001B000064C074D06E0E06840F0010394E80700B4
:1001C00098471034AC42F6D3FFF7B6FF442E000830
:1001D000642E000870B58C1810F8015B15F0070349
:1001E00001D110F8013B2A1106D110F8012B03E0D0
:1001F00010F8016B01F8016B5B1EF9D12B0705D4D8
:100200000023521E0DD401F8013BFAE710F8013B20
:10021000CB1A921C03E013F8015B01F8015B521E3C
:10022000F9D5A142D8D3002070BDFEE70020704769
:100230000020704710B500220549064801F0F4FC83
:1002400003490448403901F0E9FC002010BD0000DA
:10025000080D00202402002010B50146034801F0DB
:10026000DDFC024801F0BEFC002010BD240200208D
:10027000094A10B5D2F81822D2F814220AB1012086
:1002800010BD0A460146044801F0CEFCBDE810400E
:10029000014801F009BD000024020020704704203D
:1002A00000F01CB87047000070B5044600F020F95B
:1002B0000546601C02D004480078044400F018F998
:1002C000401BA042FAD370BD60000020042801D07A
:1002D00000BF7047052002F03DBD0000044910B585
:1002E0000A68024202D00860FFF7F0FF10BD00006C
:1002F000140401402DE9F84FDFF8B8A100220AF1FB
:10030000040B144601274FF00F090BF1040E00BF38
:100310000B6807FA04F52B40AB4274D1DFF898C1A3
:100320004E68A6EB0C0866452BD00DDC032E34D0AE
:1003300005DC36B3012E19D0022E2FD11BE0112E71
:1003400016D0122E2AD119E0B8F5881F19D006DC74
:10035000B8F5803F15D0B8F5801F1FD111E0B8F572
:10036000001F0ED0B8F5041F18D10AE0CA6815E0C6
:10037000CA68121D12E0CA6808320FE0CA680C325F
:100380000CE08A682AB1012A4FF0080203D04561C7
:1003900004E0042202E0056100E00022FF2B01D806
:1003A000064601E000F104064FEA840501D9A5F1F3
:1003B0002005D6F800C009FA05F82CEA080C02FA64
:1003C00005F54CEA050CC6F800C04D68ED006AD58D
:1003D0003A4DAE6946F00106AE61AD6924F0030600
:1003E00005F001050095364D06EB050CDCF80850CC
:1003F000A6074FEA167809FA08F6B543314EB0421F
:1004000002D100261AE04EE02F4EB04201D1012663
:1004100014E02E4EB04201D102260FE02C4EB04225
:1004200001D103260AE02B4EB04201D1042605E09B
:10043000294EB04201D1052600E0062606FA08F64C
:100440002E43CCF808604D68DAF80060ED0355469D
:1004500001D51E4300E09E432E604D68AD0305D5D7
:10046000DBF800601E43CBF8006004E0DBF80050CE
:100470009D43CBF800504D68DEF80060ED027546F4
:1004800001D51E4300E09E432E604D68AD0205D5A8
:10049000084D0C352E681E432E6004E0054E0C36C8
:1004A00035689D433560641C102CFFF431AFBDE806
:1004B000F88F0000000401400000111000100240FD
:1004C0000000014000080140000C01400010014004
:1004D0000014014000180140001C0140C2684A405D
:1004E000C26070470AB1016170470904FBE7000070
:1004F0000148806870470000600000200248816861
:10050000027811448160704760000020074810B5F0
:10051000016841F010010160032000F073F8002031
:1005200000F006F800F024F8002010BD0020024082
:1005300070B50D4D04464FF47A712878B1FBF0F098
:100540000A490968B1FBF0F000F04EFE48B9102CE2
:1005500007D200222146501E00F034F800206C60C3
:1005600070BD012070BD0000600000206C00002004
:100570000C4808B5816941F001018161816901F090
:1005800001010091C16941F08051C161C06900F071
:10059000805000900448416821F0E06141F0007112
:1005A000416008BD001002400000014000F01F0241
:1005B000012191404009800000F1E020C0F80011C5
:1005C00070470000F0B40E4B1B680C46C3F30223C7
:1005D000C3F10705042D00D90425191D072901D2EF
:1005E000002300E0DB1E012606FA05F1491E21402A
:1005F00099409E40761E16403143F0BC00F06EBF1D
:100600000CED00E0064900F0070208684FF6FF0312
:10061000184040EA0220034A104308607047000077
:100620000CED00E00000FA0510B50C0605D501F050
:100630007F0100EB4110283003E000EB411000F592
:100640000A7099B232B101228272C180190C018103
:10065000002010BD002282728180F9E7704700EB14
:100660004112D0F85C04D26B01F0E0BC00EB411207
:10067000D0F85C04D2F83C2201F02DBD10B5044640
:100680000A460B0601F07F0004EB401101D528312A
:1006900001E001F50A710870D009487094F8280447
:1006A000012809D0012084F82804206802F0F8F815
:1006B000002084F8280410BD022010BD70B50A4641
:1006C0000446090602F07F0003D504EB40112831EF
:1006D00003E004EB421101F50A7100258D700870EA
:1006E000D009487094F82804012809D0012084F822
:1006F0002804206802F082F984F82854002070BD94
:10070000022070BD01F00F0100EB4110B0F844026F
:1007100080B2704770B504460D460E0601F07F00AA
:1007200004EB401101D5283101E001F50A71087090
:10073000E80948700A61CB7094F82804012809D0B0
:10074000012084F82804206801F07AFF002084F852
:10075000280470BD022070BD70B50C4601F07F0505
:1007600000EB4511C1E98F230022C1F8442281F832
:10077000292281F8285201F50A716206006802F008
:1007800097F9002070BD70B50D460446090605F0C6
:100790007F0003D504EB4011283103E004EB451141
:1007A00001F50A7101228A700870E809487094F80E
:1007B0002804012807D084F82824206802F053F97F
:1007C000680602D006E0022070BD04F22C412068C9
:1007D00002F012F9002084F8280470BD70B50C46B0
:1007E00001F07F0500EB4511C1E90F2300224A64A7
:1007F000012281F8292001F8285F6206006802F0D2
:1008000057F9002070BD10B50446006802F032FAB6
:10081000000402D5204600F071FE206802F02AFA9A
:1008200040050CD5206830F8441F21F48061018018
:10083000204600F0EDF80021204600F004F9206881
:1008400002F018FA400405D5206830F8441F21F45E
:1008500080410180206802F00DFA800405D52068EF
:1008600030F8441F21F400510180206802F002FAA0
:10087000C00414D5206830F8401F21F00401018025
:10088000206830F8401F21F008010180204600F068
:10089000D2F8206830F8441F21F48051018020688C
:1008A00002F0E8F900051AD5206830F8401F41F041
:1008B00008010180206830F8441F21F400610180A4
:1008C000206830F8401F41F004010180206802F0E8
:1008D000D1F9C043C00402D5204600F0E9F82068F1
:1008E00002F0C8F9800508D5206830F8441F21F4CB
:1008F00000710180204600F0A2F8206802F0BAF9E9
:10090000C00505D5206830F8441F21F480710180AE
:1009100010BD00002DE9F04186B004004FF0000545
:1009200004D094F82904002620B108E0012006B084
:10093000BDE8F08184F82864204600F04BF80320DD
:1009400084F82904206802F050F804F11001142200
:1009500088466846FFF708FC94E80F0001F09EFF08
:100960000021206802F099F95FF0010704EB4510BF
:1009700080F8297000F8285F8581C670066146619D
:100980006D1C86610F2DF1D35FF0000004EB401168
:1009900081F8296281F82802888681F82B62C1F8E3
:1009A0003862C1F83C62401CC1F840620F28EDD3A8
:1009B000142241466846FFF7D7FB94E80F0002F087
:1009C00005F884F8246084F82974206801F0FCFF9D
:1009D0000020ACE708B500680B49884212D10B48EB
:1009E000C16941F40001C161C069002200F4000046
:1009F000009011461420FFF7E5FDBDE808401420E3
:100A0000FFF7D4BD08BD0000005C004000100240AC
:100A100070B5044680680125022801D0FFF742FC2A
:100A20002946D4F85C0401F023FCD4F85C04BDE84A
:100A3000704001F0ECBBD0F85C0401F007BCD0F8CA
:100A40005C0401F009BC10B5044690F828040128A4
:100A50000BD0012084F8280484F82410206802F0C8
:100A60001EF9002084F8280410BD022010BDD0F823
:100A70005C2400F22C41104601F006BC10B504467F
:100A800090F82804012810D0012084F82804014699
:100A90002046FFF7E3FD206801F094FF206802F094
:100AA000DCF8002084F8280410BD022010BD0000EE
:100AB00010B50446D0F85C0401F025FCA0690028BC
:100AC00004D00348016841F00601016010BD000038
:100AD00010ED00E02DE9F84305460078354CC007DD
:100AE00054D0E0690026C00008D4E06940F080508E
:100AF000E061E069012600F0805000902E48016816
:100B0000C90512D40168804641F480710160FFF785
:100B1000EFFC074605E000BFFFF7EAFCC01B6428B6
:100B200023D8D8F80000C005F6D5206A10F440702C
:100B300021D0A98801F4407181421CD0206A1F494C
:100B4000012220F440700A6000220A602062C0077F
:100B500011D0FFF7CDFC074641F2883808E000BF0E
:100B6000FFF7C6FCC11B414502D90320BDE8F8834D
:100B7000206A8007F4D5206A696820F44070084331
:100B800020621EB1E06920F08050E0612878800783
:100B900005D56068A96820F4404008436060287863
:100BA000C00605D56068696920F48000084360606C
:100BB0000020DBE700100240007000404004424289
:100BC0002DE9F047DFF8548105460E46D8F80000BD
:100BD00000F00700B0420CD2D8F8001021F0070155
:100BE0003143C8F80010D8F8000000F00700B04208
:100BF0006FD128684A4C810712D5400703D5606839
:100C000040F4E06060602878000703D5606840F435
:100C1000605060606068A96820F0F0000843606080
:100C20002878C00744D06868012816D021680228B7
:100C300016D0890700294CDA616821F003010143CD
:100C40006160FFF755FC6968074641F28830012969
:100C50000ED00229814618D026E021688903E9E7F1
:100C60008901E7E7FFF744FCC11B494501D918E0BA
:100C700081466068C0F381000128F3D118E000BF0D
:100C8000FFF736FCC11B49450BD86068C0F38100F3
:100C90000228F5D10CE000BFFFF72AFCC11B494533
:100CA00002D90320BDE8F087606810F00C0FF3D183
:100CB000D8F80010404601F00701B1420BD9016895
:100CC00021F0070131430160006800F00700B042E5
:100CD00001D00120E6E72878400705D56068E9687B
:100CE00020F4E060084360602878000706D560685B
:100CF000296920F4605040EAC100606000F03CF8CF
:100D00006168084AC1F30311515CC8400649086094
:100D10000020FFF70DFC0020C4E700000020024087
:100D2000001002402C2E00086C0000200149012018
:100D3000C864704700004242044805490068496899
:100D4000044AC1F30221515CC84070476C00002086
:100D5000001002403C2E000804480549006849681C
:100D6000044AC1F3C221515CC84070476C000020A6
:100D7000001002403C2E000813A185B00FC98DE879
:100D80000F0015A0154A00680490516801F00C008E
:100D9000042804D0082804D0114805B07047114831
:100DA000FBE7C1F38343C9031DF8030009D551686C
:100DB00004AAC1F34041515C0A4A5043B0FBF1F030
:100DC000EBE709494843E8E7020304050607080979
:100DD0000A0B0C0D0E0F1010010200000010024053
:100DE00000127A000024F40000093D002DE9F84FBC
:100DF00004460078B94DC00748D06868C0F3810048
:100E0000012807D06868C0F38100022809D168680A
:100E1000C00306D52868800338D5606800286FD0E5
:100E200034E06068B0F5803F0BD010B1B0F5A02F72
:100E300011D0286820F480302860286820F48020B1
:100E400002E0286840F480302860606888B1FFF7CD
:100E50004FFB064609E0286840F480202860F0E750
:100E6000FFF746FB801B642875D828688003F7D5F8
:100E70000CE0FFF73DFB064605E000BFFFF738FB3F
:100E8000801B6428F0D828688003F7D42078944E1B
:100E900080074FF001094FF000083BD5686810F05B
:100EA0000C0F07D06868C0F38100022809D1686878
:100EB000C00306D42868800714D5206901281FD1F3
:100EC00010E02069B0B1C6F80090FFF711FB0746AB
:100ED00005E000BFFFF70CFBC01B0228C4D8286840
:100EE0008007F7D52868616920F0F80040EAC10062
:100EF00028600FE0C6F80080FFF7FAFA074606E020
:100F0000E9E000BFFFF7F4FAC01B022823D82868E5
:100F10008007F7D4207800072CD57248A169D9B191
:100F2000C0F80090FFF7E4FA074604E0FFF7E0FAA4
:100F3000C01B02280FD8686A8007F7D56A484FF4AB
:100F4000FA510068B0FBF1F0009000BF0098411E1C
:100F50000091FAD20EE080E0C0F80080FFF7C8FAF6
:100F6000074604E0FFF7C4FAC01B022875D8686A78
:100F70008007F7D42078400760D5E8690027C000D3
:100F800008D4E86940F08050E861E869012700F082
:100F90008050009055480168C90513D40168834604
:100FA00041F480710160FFF7A3FA824606E000BFBA
:100FB000FFF79EFAA0EB0A0064284ED8DBF8000089
:100FC000C005F5D5E06801280AD008B1052813D07E
:100FD000286A20F001002862286A20F0040002E05C
:100FE000286A40F001002862E06841F2883B98B12D
:100FF000FFF77EFA82460BE0286A40F00400286280
:10100000EEE700BFFFF774FAA0EB0A0159455AD882
:10101000286A8007F6D50CE0FFF76AFA824605E0F9
:10102000FFF766FAA0EB0A0159454CD8286A8007F9
:10103000F6D41FB1E86920F08050E861E06988B318
:101040006968C1F38101022945D00228C6F8608091
:1010500004D0FFF74DFA044638E034E0FFF748FAD1
:10106000074604E0FFF744FAC01B02282BD8286883
:101070008001F7D4206AB0F5803F05D16868A16887
:1010800020F4003008436860D4E908010843696827
:1010900021F4741108436860C6F86090FFF728FADD
:1010A000044606E015E000BFFFF722FA001B022805
:1010B00009D828688001F7D50BE000BFFFF718FAC0
:1010C000001B022802D90320BDE8F88F28688001A0
:1010D000F4D40020F8E70120F6E7000000100240F9
:1010E00000004242800442426C0000200070004038
:1010F00070B5040005D00025A56294F8510010B128
:1011000004E0012070BD204600F034F8022084F88D
:1011100051002068016821F040010160D4E901011B
:101120000843D4E903121143084361690843218B42
:1011300001F400710843E1690843216A0843A16A88
:10114000084321680860A069042101EA1040616A2F
:101150000843216848602168E06A08612068C16925
:1011600021F40061C1616565012084F8510000200F
:1011700070BD000030B585B0002400940194029445
:10118000039400681549884225D11548C16941F486
:101190008041C161C16901F480410491816941F0DC
:1011A0000801816180690F4D00F0080004904FF440
:1011B00030400090022001900320039069462846A9
:1011C000FFF798F84FF48040CDE9000469462846BF
:1011D0000294FFF78FF805B030BD000000380040E2
:1011E00000100240000C014010B5401EB0F1807F9D
:1011F00001D3012010BD4FF0E02460610F21601782
:1012000000F06CF90020A06107202061002010BDD3
:1012100070B5040004D094F83900002510B106E040
:10122000012070BD84F83850204600F023F82420B7
:1012300084F839002068C16821F40051C16020465B
:1012400000F06AFB2068016921F490410161206887
:10125000416921F02A0141612068C16841F40051CF
:10126000C160E563202084F8390084F83A0000204A
:1012700070BD000030B585B0002400940194029444
:10128000039400681449884224D11448C16941F488
:101290000021C161C16901F400210491816941F01B
:1012A0001001816180690E4D00F0100004904FF430
:1012B0008060009002200190032003906946284638
:1012C000FFF718F8E814CDE90004694628460294AF
:1012D000FFF710F805B030BD004C00400010024090
:1012E00000100140FEE7000007490968C9070AD05D
:1012F000054980390968C90705D04FF060410A687F
:10130000002AFCD008707047800E00E0F0B5002382
:101310000A24302537261F4611E000BFB4EB107FAA
:1013200002D905EB107C01E006EB107C01F813C03C
:1013300001EB430C00015B1C8CF80170DBB29342A3
:10134000ECD3F0BD2DE9F04786B000243A48009474
:10135000019402940394816941F0200181618169C3
:1013600001F020010491816941F0040181618169EA
:1013700001F004010491816941F0080181618169F2
:1013800001F008010491816941F0100181618069D7
:10139000DFF8A88000F010004FF4007504900022E0
:1013A00029464046FFF79EF8DFF894904FF44077C7
:1013B000002239464846FFF795F8DFF888A000225A
:1013C00030215046FFF78EF8042000901E48CDE9EA
:1013D000010469464846FEF78DFF802000901B48B7
:1013E000CDE9010469464046FEF784FF00950226D8
:1013F00001250396CDE9015469464046FEF77AFF80
:1014000000970396CDE9015469464846FEF772FFFE
:101410003020CDE90005CDE9024669465046FEF789
:1014200069FF002211460820FFF7CCF80820FFF7DB
:10143000BDF806B0BDE8F087001002400010014082
:1014400000080140000C01400000211000001110B4
:101450000B480A494FF4802201604FF482714160C9
:1014600000218160C1600161C0E90512C1610162B2
:10147000416281620A21C162FFF73ABE0038004032
:101480008C01002010B500220F49104800F08CFD9F
:1014900008B1FEF707FF0E490C4800F05BFF08B1EA
:1014A000FEF700FF0B49094800F0B0FB08B1FEF75A
:1014B000F9FE064800F0B8FF002803D0BDE8104050
:1014C000FEF7F0BE10BD0000000000202402002046
:1014D0005001002050000020FEE770470907090E68
:1014E000002806DA00F00F0000F1E02080F8141D5B
:1014F000704700F1E02080F8001470472DE9FC5F90
:101500004FF000080446ADF80480ADF8008048F6BE
:101510000F7B4FF002094FF4806692E1BDF8041092
:1015200011F00F072BD030F82710ADF80010BDF8E0
:101530000010090478D530F8272040F68F710A4052
:1015400020F8272004EB471595F8320205F50A75B7
:101550000028206869D0297830F8212052047DD5F0
:10156000B0F8503009EBC101194406EB4101415A72
:10157000C1F309015FEA010A71D0EA88D0E0BDF841
:101580000410C9062AD4018801EA0B0101802068F1
:1015900004F12805B0F850202B7809EBC301114461
:1015A00006EB4101405AC0F309006064E16B084456
:1015B000E06300212046FFF752F894F82400002849
:1015C000ABD0A8690028A8D194F82400216840F085
:1015D0008000A1F84C0084F8248032E1018804F5F1
:1015E0000A75ADF80010BDF8001009051ED5B0F859
:1015F00050302978062202EBC101194406EB410163
:10160000405A04F22C41C0F30903EB61AA88206818
:1016100001F034FB2068018840F68F721140018090
:101620002046FFF724FA0CE1A0E055E0BDF80010D9
:101630000904D2D5028840F68F710A4002802068E2
:10164000B0F850302978062202EBC101194406EBAC
:101650004101405A83059B0DEB6101E051E063E0DD
:1016600008D0AA886969206801F008FBE9696869FF
:101670000844686100212046FEF7F8FF2068B0F8B2
:101680005010891D06EB4101014428693E280CD900
:10169000C0F34F12C00601D1521E92B24FF6FF7036
:1016A00000EA822040F4004009E0C0F34F02C00786
:1016B00001D0521C92B24FF6FF7000EA82200860FF
:1016C000216808884BF68F72104080F4405048F231
:1016D000800210430880B4E0B0F850202B78062137
:1016E00001EBC301114406EB4101415AC1F3090169
:1016F0005FEA010A24D0AA885346696901F0BEFA5C
:101700001EE0B0F85020062303EBC101114406EBA4
:101710004101415AC1F309015FEA010A04D02A8953
:101720005346696901F0AAFA2978206830F8213017
:1017300048F68F72134048F2C002134320F821305C
:10174000E96901EB0A00E861696901EB0A026A6173
:10175000AB6913B12869504504D929782046FEF7B2
:1017600085FF03E029782046FEF7F6FFBDF800006C
:10177000000666D5206804EB471530F8271001EA0B
:101780000B0120F8271095F8320028350028206832
:1017900012D0297830F82120B0F8503052061ED5EA
:1017A00009EBC101194406EB4101405A83059B0D29
:1017B000EB6124D0EA881EE0B0F850302A7809EBBB
:1017C000C201194406EB4101405A83059B0DEB61B0
:1017D00021D0AA886969206801F067FA1BE0062217
:1017E00002EBC101194406EB4101405A83059B0DF0
:1017F000EB6104D02A896969206801F056FA2978DA
:10180000206830F8212048F68F731A404CF280038C
:101810001A4320F821202068B0F850202B7809EBDB
:10182000C301114406EB4101405AC0F30900E861CD
:1018300069690A186A612978AB69204663B1FEF7C5
:10184000CDFF2068B0F84410ADF8041009043FF54E
:1018500065AE0020BDE8FC9FFEF701FFF1E7704791
:101860007047FEF74BBE10B596B028216846FEF7CC
:1018700094FC14210AA8FEF790FC18210FA8FEF78B
:101880008CFC0120010442048DE8070004904FF411
:10189000E010CDE90810022407946846FFF7A6FA85
:1018A0000F20CDE90A0400244FF48060CDE90C40FC
:1018B00002210AA80E94FFF783F9102014940F90C8
:1018C0000FA8FFF707F9FFF731FA16B010BD0000B7
:1018D0000D48016841F00101016041680B4A114067
:1018E000416001680A4A11400160016821F48021C9
:1018F0000160416821F4FE0141604FF41F018160E5
:101900000449C00308607047001002400000FFF85F
:10191000FFFFF6FE08ED00E02DE9F0410446006807
:101920000169E26821F44051114301612169A06815
:101930000843616908432168CA6841F20C639A430D
:101940000243CA6020684169A26921F440711143D1
:1019500041614C4920686425322688423CD1FFF71A
:10196000FBF900EBC00101EB001061688900B0FBDE
:10197000F1F7FFF7F1F900EBC00101EB001061682E
:10198000B0468900B0FBF1F0B0FBF5F06FF0180144
:10199000484307EB800106EB0110B0FBF5F000F0C7
:1019A000F006FFF7D9F900EBC00101EB0010616808
:1019B0008900B0FBF1F0B0FBF5F006EB0016FFF785
:1019C000CBF900EBC00101EB001061688900B0FBAE
:1019D000F1F7FFF7C1F93BE0FFF7AEF900EBC0010B
:1019E00001EB001061688900B0FBF1F7FFF7A4F983
:1019F00000EBC00101EB00106168B0468900B0FB4C
:101A0000F1F0B0FBF5F06FF01801484307EB8001EF
:101A100006EB0110B0FBF5F000F0F006FFF78CF9D3
:101A200000EBC00101EB001061688900B0FBF1F030
:101A3000B0FBF5F006EB0016FFF77EF900EBC001F6
:101A400001EB001061688900B0FBF1F7FFF774F952
:101A500000EBC00101EB001061688900B0FBF1F000
:101A6000B0FBF5F06FF01801484307EB800108EB7D
:101A70000110B0FBF5F0216800F00F0030448860E1
:101A8000BDE8F08100380140D0F8180220B10021F3
:101A9000C0F81412084670470220704770B505461A
:101AA000D0F8184200F04CFBC4F80C02D5F818022C
:101AB00048B1D5F81C12D4F80402CA6804F50371C1
:101AC0009047002070BD022070BD70B5044600250F
:101AD000812100F0A2FA0121204600F09EFA822125
:101AE000204600F09AFAD4F8180250B1D4F81C023B
:101AF00004F5067440688047206800F09BFD0020D4
:101B00002060284670BD10B5D0E9864159B194F8DF
:101B10000002FF2807D08B6894F8012221469847DD
:101B2000FF2084F80002002010BD00000A2101807F
:101B3000004870477800002043210180004870472A
:101B4000C800002043210180004870478400002025
:101B500043210180004870470C0100202DE9F0412D
:101B60000446007C00254FF4007670B34023022227
:101B70008121204600F036FB40230222012120462D
:101B800000F030FB082303228221204600F02AFBCC
:101B90004FF4077000F050FDC4F81802F0B107468A
:101BA000D4F81C02006880470020C7F81402C7F868
:101BB0001802207CD7F8042290B14023012120464E
:101BC00000F01CFB2846BDE8F081FFE73346022207
:101BD0008121204600F006FB3346CEE70125F1E7E0
:101BE0003346EBE710B5D0F8181269B1027C002A31
:101BF000D1F8042205D04023012100F0FFFA002093
:101C000010BD4FF40073F7E7022010BD024602201A
:101C1000002902D00020C2F81C127047D0F8180228
:101C2000C0F8041200207047D0F81802C0F8102243
:101C3000C0F808120020704770B50646D0F8185258
:101C400008780C4610F0600121D0202927D1E288C5
:101C5000AAB10006607807D5D6F81C128B68294611
:101C60009847E288294617E085F80002A07985F8B0
:101C70000102E2882946304600F050F80FE0D6F81D
:101C80001C12607800228B682146984707E0607834
:101C90000A2804D103490122304600F059F80020F7
:101CA00070BD00007400002010B5D0F8181289B182
:101CB000D1F814220AB1012010BD0122C1F814226A
:101CC000B1F8102293B2D1F80822812100F024FB50
:101CD000002010BD022010BD10B5D0F814225268AB
:101CE0009047002010BD134610B50A46002100F0B1
:101CF00085FA002010BD134610B50A46002100F0F9
:101D00000BFB002010BD10B50446802100F0E9FA5D
:101D10002046BDE81040002100F0E3BA10B50323CF
:101D2000C0F80821C0F8F431C0F80C2113460A4667
:101D3000002100F063FA002010BD10B5052100233A
:101D4000C0F8F4111A46194600F058FA002010BDE8
:101D500010B502238261C0F8F431C26113460A460D
:101D6000002100F0D9FA002010BD10B50421002395
:101D7000C0F8F4111A46194600F0CEFA002010BD42
:101D800010B50A46024903A000F0DEF8004810BD75
:101D9000C80A002043444320436F6E666967000011
:101DA00012200880004870472000002010B50A4625
:101DB000024903A000F0C8F8004810BDC80A00207E
:101DC00043444320496E7465726661636500000098
:101DD00004200880004870471C00002010B50A4607
:101DE000024903A000F0B0F8004810BDC80A002066
:101DF00053544D6963726F656C656374726F6E697D
:101E00006373000010B50A46024903A000F09CF875
:101E1000004810BDC80A002053544D333220566983
:101E2000727475616C20436F6D506F7274000000A6
:101E300010B51A2008800A480168001D0468001DBA
:101E40000068081809D008220649FFF75FFA05491B
:101E5000042210312046FFF759FA0248801E10BDB7
:101E6000E8F7FF1F36000020F8B5044648880D4605
:101E7000010A08294BD2DFE801F04A0409174A4A4F
:101E80004048D4F81012207C0A6832E0207C0226F8
:101E90000028D4F8140205D0C16A68468847014674
:101EA000467041E0816AF8E7C0B206282FD2DFE829
:101EB00000F003080D12171CD4F81012207C4A6899
:101EC00017E0D4F81012207C8A6812E0D4F81012BF
:101ED000207CCA680DE0D4F81012207C0A6908E062
:101EE000D4F81012207C4A6903E0D4F81012207C48
:101EF0008A6969469047014616E0207C38B9D4F8D3
:101F00001402416B68468847F5E7207C20B12946DA
:101F10002046FFF7F8FEF8BDD4F81402016B6846BE
:101F20008847014607204870BDF800000028F2D01D
:101F3000EA88002AEFD0824200D90246ADF800209C
:101F40002046FFF705FFF8BD70B5002300281DD01F
:101F50000446002502E06D1CEDB2641C2678002EBC
:101F6000F9D1022404EB45041480CC545B1C0322F9
:101F7000CA5400245B1C06E0CA545B1CDAB28C54C1
:101F8000521CD3B2401C0278002AF5D170BD01006A
:101F90004FF0000004D0012901D0022901D0022015
:101FA000704701207047000010B580B1D0F814329E
:101FB00013B10023C0F8143209B1C0F81012012186
:101FC00080F8FC11027000F0BFF8002010BD05A0E1
:101FD00000F080FE05A000F07DFE0AA000F07AFE71
:101FE000022010BD4552524F523A2000496E766190
:101FF0006C6964204465766963652068616E646C11
:10200000650000000A00000010B5D0F82002FEF7BD
:1020100055FBBDE81040FFF7BABF10B5D0F820025D
:10202000FEF72CFBBDE81040FFF7B1BF2DE9F041F2
:102030001746044641B1D4F8140242698AB394F8B1
:10204000FC01032842D043E0D4F8F411002504F148
:102050001400022933D1D0E902639E4207D9F31A52
:1020600083609AB239462046FFF745FE12E0406889
:10207000B0FBF3F103FB1101A1B9984212D3D4F8DC
:10208000F81188420ED2002211462046FFF733FE97
:10209000C4F8F85100231A461946204600F0AEF85D
:1020A0000DE012E0D4F81402C16829B194F8FC01E3
:1020B000032801D1204688472046FFF73EFE94F8CA
:1020C0000002012804D184F8005201E02046904724
:1020D0000020BDE8F08170B51546044641B1D4F842
:1020E000140282693AB394F8FC01032824D025E055
:1020F000D4F8F41104F5827003291FD1D0E902212C
:102100008A420BD9531A83600846834200D30346A0
:102110009AB229462046FFF7E6FD0FE0D4F81402F4
:10212000016929B194F8FC01032801D120468847B0
:102130002046FFF71AFE01E020469047002070BDC0
:10214000D0F82002FEF7DEBA10B504461C481D493F
:10215000C0F85C44C4F820020160082141600221FB
:10216000816000218161C1610162FEF7D3FB08B18A
:10217000FEF798F80022D4F820021823114604F53F
:102180000874FEF751FA5823002280212068FEF7D8
:102190004BFAC023002281212068FEF745FA4FF454
:1021A0008873002201212068FEF73EFA4FF4807305
:1021B000002282212068FEF737FA002010BD0000BF
:1021C00068060020005C00400A06D0F8200201F0FA
:1021D0007F0100EB411002D590F82A00704790F87B
:1021E0002A02704710B51C461346D0F8200222463A
:1021F000FEF790FABDE81040FFF7C9BE10B5D0F861
:102200002002FEF7A9FABDE81040FFF7C0BE70B586
:102210000022044640231146FFF7E4FF40252B46E9
:10222000002280212046C4F81051FFF7DBFF012077
:10223000256284F8FC01D4F8180228B1D4F81402FD
:102240002179426820469047002070BD90F8FD112A
:1022500080F8FC110020704710B590F8FC1103299C
:1022600004D1D0F81412C96901B18847002010BD0B
:1022700001740020704710B5D0F82002FEF7E3FB90
:10228000BDE81040FFF783BE70B5044600F502704C
:10229000054600F04AF80120C4F8F401B4F80E0233
:1022A000C4F8F80194F8080210F01F010AD00129BF
:1022B0000DD0022910D000F08001204600F011F866
:1022C000002070BD2946204600F0B3F8F8E7294603
:1022D000204600F095F9F3E72946204600F022F960
:1022E000EEE710B5D0F82002FEF74DFABDE8104039
:1022F000FFF74DBE10B5D0F82002FEF7BFFBBDE8DA
:102300001040FFF744BE90F8FC1180F8FD11042145
:1023100080F8FC110020704710B5D0F82002FEF7BD
:102320005DFABDE81040FFF732BE0A7802704A78C5
:1023300042708A78CB7802EB032242800A794B798B
:1023400002EB032282808A79C97902EB0121C180E4
:102350007047000010B50246002011B1C2F81412F7
:1023600010BD05A000F0B6FC05A000F0B3FC0AA06B
:1023700000F0B0FC022010BD4552524F523A2000EE
:10238000496E76616C696420436C61737320686187
:102390006E646C65000000000A00000010B5D0F803
:1023A000142202241AB11268904700B90024204672
:1023B00010BD000070B50E461A4D8978044629708C
:1023C000012928D894F8FC01022802D0032822D140
:1023D00005E099B10320616084F8FC0109E091B146
:1023E000606888420AD0C1B22046FFF775FC2978A0
:1023F00061602046FFF7D2FF02280CD02046BDE8DE
:102400007040FFF7B2BC022084F8FC0120466160F6
:10241000FFF762FCF2E731462046BDE87040FFF767
:1024200072BC00007000002010B5FFF763FF0020B1
:1024300010BD2DE9F04100264B78012532460A2BCC
:1024400043D2DFE803F03C584251420805422A27B4
:10245000FFF70AFD63E004468888C8B9C888B8B9A0
:10246000887800F07F0794F8FC01032810D084F8E6
:10247000FE7139462046FFF7FEFE2046FFF775FC49
:102480001FB1022084F8FC0149E084F8FC5146E0C9
:1024900020461AE0FFF78EFF41E0CB88012B14D1D4
:1024A00090F8FC31022B02D0032B0ED104E08260A5
:1024B000012200F1080114E00122011D11E090F851
:1024C000FC21022A04D0032A02D0FFF71CFC26E0DC
:1024D000C560D0F8041209B10321C160022200F1E5
:1024E0000C01FFF735FC1AE004464888012816D194
:1024F000C4F804520BE0044690F8FC01022801D015
:102500000328C5D14888012809D1C4F80422D4F889
:1025100014028268204690472046FFF726FC30468A
:10252000BDE8F08170B50D4604462878002609798B
:10253000C0F34110012806D06878A0B301281FD04D
:1025400003283FD107E0D4F81402294682682046C8
:102550009047002070BD94F8FC01022817D0032892
:102560002CD1688828B921B1802902D02046FFF7F4
:10257000B8FED4F81402294682682046904713E03A
:1025800094F8FC01022802D0032817D103E0C9B156
:1025900080291BD116E06888A0B9480604D02046DF
:1025A000FFF732FDE5E703E02046FFF7DEFB09E039
:1025B00094F8FC01022807D003280BD029462046B6
:1025C000FFF7A1FB304670BD4806FBD02046FFF761
:1025D00088FEF7E7080601F07F0004EB001501D53F
:1025E000143501E005F582752046FFF7EDFD00B1D9
:1025F00001202860022229462046FFF7A9FBE1E7D7
:1026000070B5054690F8FC010C4603280DD12079E1
:1026100001280AD8D5F81402826828469047E08835
:1026200030B92846FFF7A1FB02E02846FFF76BFB15
:10263000002070BD7047000000487047480400202B
:102640002DE9F047CC780A7848F68F1334B1012C85
:102650006DD0022C08D0032C13D10BE030F82240AF
:102660001C4044F400730AE030F822401C4020F87B
:10267000224006E030F822401C4044F4C06320F8B9
:1026800022300C7830F8245048F68F72154048F20A
:1026900080031D43254320F824508D7A48F6BF79E6
:1026A00004274BF68F7A48F2C0044CF28006EDB353
:1026B0000D7830F825C048F280180CEA020C4CEA7C
:1026C000080C20F825C0CD88B0F850C025F00105D1
:1026D00091F800800CEBC80C00EB4C0CCCF80054CB
:1026E0000D89B0F850C025F0010591F8008007EB86
:1026F000C807674400EB4707C7F800544D78002D22
:102700000D7830F825704FEA47477DD0002F05DA65
:1027100030F825701740374320F825700D7830F8D1
:1027200025707F0608D530F8257001E024E01DE013
:102730001740274320F825700C7830F824501540B6
:10274000354320F824500C7830F8242002EA09029E
:102750001A4320F824200A7830F8221001EA0A01EE
:10276000194320F822100020BDE8F08730F82240FD
:102770001C4044F4806382E74D78F5B18D88B0F851
:10278000506025F001050F7806EBC70600EB460602
:10279000C6F800540D7830F82560760605D530F877
:1027A00025601640264320F825600A7830F822106C
:1027B00001EA090181F02001D2E78C88B0F850507D
:1027C00024F0010491F800C007EBCC073D4400EB76
:1027D0004505C5F80044B0F850400D78062707EBD2
:1027E000C5052C4400EB44070C694FF6FF7C07F548
:1027F00080673E2C0CD9C4F34F15E40601D16D1E41
:10280000ADB20CEA852400E01EE044F4004407E089
:10281000C4F34F05E40701D06D1CADB20CEA85246A
:102820003C600C7830F824506D0405D530F8245005
:102830001540354320F824500A7830F8221001EA78
:102840000A0181F440518BE7002F05DA30F825703A
:102850001740374320F825700D7830F8256076064C
:1028600005D530F825601640264320F825600E78FF
:1028700030F826501540254320F826500C7830F8C3
:10288000242002EA0A0282F440521A4320F824204B
:102890000A7830F8221001EA090161E70020704748
:1028A0002DE9F04391F80A8091F801C00A7848F6C2
:1028B000BF774BF68F7948F2800348F2C0054CF29F
:1028C000800648F68F74B8F1000F2ED0BCF1000FCF
:1028D00030F822C04FEA4C4C4ED0BCF1000F07DA62
:1028E00030F822C00CEA040C4CEA060C20F822C096
:1028F0000A7830F822C05FEA4C6C07D530F822C065
:102900000CEA040C4CEA050C20F822C00A7830F8D6
:1029100022502540354320F822500C7830F82420EE
:102920003A401A4320F824201BE0BCF1000F0ED0DF
:1029300030F82260760605D530F8226026402E4316
:1029400020F822600A7830F8221039400EE030F882
:1029500022506D0405D530F822502540354320F82B
:1029600022500A7830F8221001EA0901194320F8B0
:1029700022100020BDE8F083BCF1000F07DA30F828
:1029800022C00CEA040C4CEA060C20F822C00A789B
:1029900030F82260760605D530F8226026402E43B6
:1029A00020F822600E7830F8262022402A4320F8B2
:1029B00026200C7830F8242002EA09021A4320F875
:1029C0002420BFE7002070470020704700B5012198
:1029D000A0F840100021A0F84010A0F84410A0F882
:1029E000501000F03AF9002000BD30F8401F21F4EB
:1029F0003D410180002070470020704730B54D7880
:102A00000A78002D48F68F7430F8225048F280037F
:102A100012D06D0607D530F82250254048F2C00488
:102A2000254320F822500A7830F8221048F6BF7467
:102A3000214081F0300111E06D0407D530F82250BB
:102A400025404CF28004254320F822500A7830F8C3
:102A500022104BF68F74214081F44051194320F825
:102A60002210002030BD10B50A7848F2800352B120
:102A70004978002930F8221010D048F6BF74214060
:102A800081F010010FE001884BF6BF72114081F414
:102A9000805181F010011943018007E04BF68F74DB
:102AA000214081F48051194320F82210002010BDEC
:102AB0002DE9F0410D460646896995F801C00023CD
:102AC000AA7A022728690C4648F28008BCF1010F57
:102AD00005D0814252D90446081AA8614FE08142CC
:102AE00003D90446081AA86100E0AB617AB12878DE
:102AF00036F820104906B6F8501007EBC00008441D
:102B000006EB4000C0F8004412D52A8911E0A3B2B8
:102B1000AA883046696900F0C8F8B6F850002978EC
:102B200007EBC101084406EB4000C0F800441CE07C
:102B3000EA88A3B23046696900F0B7F8687848F6C9
:102B40008F7110B1012807D00FE0287836F82020C7
:102B50000A4048F2C00105E0287836F820200A40F3
:102B60004CF280010A4326F82020297836F821000B
:102B700048F6BF72104080F0300067E0AB6106237A
:102B80004FF6FF701AB1BCF1000F1BD056E0B6F83B
:102B900050102A783E2C03EBC202114406EB41028E
:102BA00002F5806239D9C4F34F11E30632D000BF79
:102BB00000EA812040F4004002E000BF00EA8120EA
:102BC00010603BE0B6F850102A783E2C07EBC202AA
:102BD000114406EB410202F580620BD9C4F34F1198
:102BE0005FEAC46C01D1491E89B200EA812141F437
:102BF000004108E0C4F34F015FEAC47C01D0491CE6
:102C000089B200EA8121116069780029BFD00129C9
:102C10000AD013E0491E89B2CAE7C4F34F01E307A3
:102C2000CCD0491C89B2C9E7B6F85000297807EB27
:102C3000C101084406EB4000C0F80044297836F88A
:102C400021004BF68F72104080F4405040EA08009B
:102C500026F821000020BDE8F08130F8401F41F443
:102C60003F410180002070470148FDF7CCBD0000C6
:102C700068060020B0F84400704700005B1C00EBC1
:102C800042005B0800F5806006D000BF30F8042BDE
:102C900021F8022B5B1EF9D170470020704711B953
:102CA0008021A0F84C100020704710B55B1C00EB91
:102CB00042005B0800F5806009D011F8012B5B1E13
:102CC00011F8014B42EA042220F8042BF5D110BD83
:102CD000FEE700000FB4054B10B503A9044A0298A3
:102CE00000F017F810BC5DF814FB0000412D00083F
:102CF0008801002002E008C8121F08C1002AFAD18A
:102D000070477047002001E001C1121F002AFBD16B
:102D100070472DE9F0411E4617460446002508E09D
:102D2000252802D114F8010F30B13946B047641C90
:102D30006D1C20780028F3D12846BDE8F081000002
:102D4000034A914201D1FEF7CFBA4FF0FF307047EE
:102D50008801002070B54FF480711A4C4D001A4E56
:102D600007281ED2DFE800F004060C0E1215190029
:102D7000204601E029463046BDE87040FDF7AEBB75
:102D80002946F5E72046FDF7A9FBF3E7294630463B
:102D900000E02046FDF7A2FBF2E72046FDF79EFB90
:102DA000F4E700222046FDF79DFB0022294630462D
:102DB000FDF798FB29462046BDE870400022FDF74C
:102DC00091BB000000080140001001401CB500202C
:102DD00069460854401CC0B20828FAD3FDF796FB98
:102DE000FEF741FDFEF7AEFAFEF732FB0E480D4945
:102DF0000C2201604FF4E131416000218160C1602B
:102E0000C0E904128161C161FEF702FAFEF73AFBE4
:102E10004FF47A742046FDF747FA08216846FDF71B
:102E200027FAF7E7004C0040E40100200000000012
:102E3000000000000102030406070809000000006A
:102E400001020304642E0008000000208C01000031
:102E5000D4010008282F00088C010020BC4B000082
:102E6000042D000813A11D1B08D1041ADD0413054D
:102E70001E1B0831041A810C1AAD0417040309043F
:102E80001201140202021640830440572602010276
:102E90000301031A1A031B35024419041A2D041ADC
:102EA0005904192F11821084A24A04130A0632020F
:102EB0002A40201C0902435B111CC032091F1B0160
:102EC000020B130524161001052401100901042426
:102ED0000202052406170107058203081C100904D5
:102EE00091320A1D07050102432C070581070938A5
:102EF000442A40072A8107112B0907440A22044467
:102F00000A16FF44135D1B1408CB1A1408391C421F
:102F1000081A07101A89101A9D04C11A45181A397F
:082F2000041A51041A2D0441AA
:0400000508000131BD
:00000001FF
